{
  "_format": "hh-sol-artifact-1",
  "contractName": "PlonkVerifier",
  "sourceName": "contracts/deleteVerifier.sol",
  "abi": [
    {
      "inputs": [
        {
          "internalType": "uint256[24]",
          "name": "_proof",
          "type": "uint256[24]"
        },
        {
          "internalType": "uint256[3]",
          "name": "_pubSignals",
          "type": "uint256[3]"
        }
      ],
      "name": "verifyProof",
      "outputs": [
        {
          "internalType": "bool",
          "name": "",
          "type": "bool"
        }
      ],
      "stateMutability": "view",
      "type": "function"
    }
  ],
  "bytecode": "0x608060405234801561001057600080fd5b50611f30806100206000396000f3fe608060405234801561001057600080fd5b506004361061002b5760003560e01c80631d5803fe14610030575b600080fd5b61004a60048036038101906100459190611e86565b610060565b6040516100579190611ed3565b60405180910390f35b6000611ddb565b600080600184846000805b821561009c5782840591508482028603905084955080945082820284039050829350809250610072565b60018411156100aa57600080fd5b60008612156100b95788860195505b85965050505050505092915050565b60405181602084028301815160208301925060005b82841015610120578185527f30644e72e131a029b85045b68181585d2833e84879b9709143e1f593f00000018451830991506020850194506020840193506100dd565b61014a7f30644e72e131a029b85045b68181585d2833e84879b9709143e1f593f000000183610067565b91506020850394506020840393508592505b828411156101c6577f30644e72e131a029b85045b68181585d2833e84879b9709143e1f593f00000018551830990507f30644e72e131a029b85045b68181585d2833e84879b9709143e1f593f000000184518309915080845260208503945060208403935061015c565b81845250505050505050565b7f30644e72e131a029b85045b68181585d2833e84879b9709143e1f593f00000018110610203576000805260206000f35b50565b610212610244356101d2565b61021e610264356101d2565b61022a610284356101d2565b6102366102a4356101d2565b6102426102c4356101d2565b61024e6102e4356101d2565b565b6000806040517f2cc755ef4fe9176c913626c47d9c025cef2796e2442780638ff2ee75ef8b8b6281527f15a0b5cc71216ad12510941840d70907b6b22e9873bff3c83eca4bb22587839960208201527f30422d6c50e197e8bf1323049055b9a0d5541de8eb5491f108dd00cce8129dbc60408201527f28b208beb22ec78a47dcaf86f4247e11b2905180a597b9811c56c30e518d8c5760608201527f1e6e6e37526452002798a1317cea3997af7c96df1aaa1fe49e3e01cdf0a7abc960808201527f0924ee3b3361b5bada9b3a7ce09a1951b3af1c6da50f8f15602f5aefe7d77c6c60a08201527f0c7ed4eee23284cf8d136d61ca9d8527d25e9f35cbef30b5a4e4b922c5094bb260c08201527f1389e3412e30e1577407fc366382f2b04a4eda77db33f9404b179159a2cedb7b60e08201527f0ce652fa1ada129f8290bffe0156e14c0647b6b736194993997842d97b7870c36101008201527f2a277e3e5bdc15c3c58ac14dbda57df7248191bc3f11c6b7435ecc934eb756ae6101208201527f04f2d0d1324efe0a4882bccd5544feead4a8b36b17885c286007137766bb690a6101408201527f1c8157ce40561cab3e4a93ac610aaad54bb8418ef6fb3a6d07593373dbc0942c6101608201527f0fc17a8d217f6c367a0d563653fc447727295376f916796d3356b4f2ca3da9526101808201527f3059fd81aad234cb519a646e375d05aa0682819f6648ee63834c21f23270d4106101a08201527f25789fc404a88d3e4ef03a457517b054b652b849e13e4096fdd4192be8255ac36101c08201527f2e43f085a76bc37d435bdc003a30fcf2a975129d5d62fd195cc42dc1e6bbf09e6101e08201526000850135610200820152602085013561022082015260408501356102408201526004356102608201526020600401356102808201526044356102a08201526020604401356102c08201526084356102e08201526020608401356103008201527f30644e72e131a029b85045b68181585d2833e84879b9709143e1f593f000000161032082200692508260208501527f30644e72e131a029b85045b68181585d2833e84879b9709143e1f593f0000001602080860120066040850152602084015181526040840151602082015260c4356040820152602060c4013560608201527f30644e72e131a029b85045b68181585d2833e84879b9709143e1f593f0000001608082200691508160008501527f30644e72e131a029b85045b68181585d2833e84879b9709143e1f593f00000018283096102c08501528181526101043560208201526020610104013560408201526101443560608201526020610144013560808201526101843560a08201526020610184013560c08201527f30644e72e131a029b85045b68181585d2833e84879b9709143e1f593f000000160e082200691508160608501528181526102443560208201526102643560408201526102843560608201526102a43560808201526102c43560a08201526102e43560c08201527f30644e72e131a029b85045b68181585d2833e84879b9709143e1f593f000000160e08220068060c08601527f30644e72e131a029b85045b68181585d2833e84879b9709143e1f593f000000183850960a08601527f30644e72e131a029b85045b68181585d2833e84879b9709143e1f593f000000183840992507f30644e72e131a029b85045b68181585d2833e84879b9709143e1f593f000000183840992507f30644e72e131a029b85045b68181585d2833e84879b9709143e1f593f000000183840992507f30644e72e131a029b85045b68181585d2833e84879b9709143e1f593f000000183840992507f30644e72e131a029b85045b68181585d2833e84879b9709143e1f593f000000183840992507f30644e72e131a029b85045b68181585d2833e84879b9709143e1f593f000000183840992507f30644e72e131a029b85045b68181585d2833e84879b9709143e1f593f000000183840992507f30644e72e131a029b85045b68181585d2833e84879b9709143e1f593f000000183840992507f30644e72e131a029b85045b68181585d2833e84879b9709143e1f593f000000183840992507f30644e72e131a029b85045b68181585d2833e84879b9709143e1f593f000000183840992507f30644e72e131a029b85045b68181585d2833e84879b9709143e1f593f000000183840992507f30644e72e131a029b85045b68181585d2833e84879b9709143e1f593f000000183840992507f30644e72e131a029b85045b68181585d2833e84879b9709143e1f593f000000183840992507f30644e72e131a029b85045b68181585d2833e84879b9709143e1f593f000000183840992508260808601527f30644e72e131a029b85045b68181585d2833e84879b9709143e1f593f0000001806001850301069250826102e0860152826103008601527f30644e72e131a029b85045b68181585d2833e84879b9709143e1f593f000000181820992508260e08601527f30644e72e131a029b85045b68181585d2833e84879b9709143e1f593f00000018184099250826101008601527f30644e72e131a029b85045b68181585d2833e84879b9709143e1f593f00000018184099250826101208601527f30644e72e131a029b85045b68181585d2833e84879b9709143e1f593f00000018184099250826101408601526101c435825260206101c4013560208301526102043560408301526020610204013560608301527f30644e72e131a029b85045b68181585d2833e84879b9709143e1f593f00000016080832006610160860152505050505050565b60017f30644e72e131a029b85045b68181585d2833e84879b9709143e1f593f0000001807f30644e72e131a029b85045b68181585d2833e84879b9709143e1f593f0000001836060860151030106614000096103208301527f30644e72e131a029b85045b68181585d2833e84879b9709143e1f593f00000017f2d965651cdd9e4811f4e51b80ddca8a8b4a93ee17420aae6adaa01c2617c6e85820990507f30644e72e131a029b85045b68181585d2833e84879b9709143e1f593f0000001807f30644e72e131a029b85045b68181585d2833e84879b9709143e1f593f0000001836060860151030106614000096103408301527f30644e72e131a029b85045b68181585d2833e84879b9709143e1f593f00000017f2d965651cdd9e4811f4e51b80ddca8a8b4a93ee17420aae6adaa01c2617c6e85820990507f30644e72e131a029b85045b68181585d2833e84879b9709143e1f593f0000001807f30644e72e131a029b85045b68181585d2833e84879b9709143e1f593f000000183606086015103010661400009610360830152610bf0600461030084016100c8565b6102e0820151600191507f30644e72e131a029b85045b68181585d2833e84879b9709143e1f593f000000181610320850151096103208401527f30644e72e131a029b85045b68181585d2833e84879b9709143e1f593f00000017f2d965651cdd9e4811f4e51b80ddca8a8b4a93ee17420aae6adaa01c2617c6e85830991507f30644e72e131a029b85045b68181585d2833e84879b9709143e1f593f000000180826103408601510983096103408401527f30644e72e131a029b85045b68181585d2833e84879b9709143e1f593f00000017f2d965651cdd9e4811f4e51b80ddca8a8b4a93ee17420aae6adaa01c2617c6e85830991507f30644e72e131a029b85045b68181585d2833e84879b9709143e1f593f00000018082610360860151098309610360840152505050565b60007f30644e72e131a029b85045b68181585d2833e84879b9709143e1f593f0000001807f30644e72e131a029b85045b68181585d2833e84879b9709143e1f593f00000016000860135610320860151098303010690507f30644e72e131a029b85045b68181585d2833e84879b9709143e1f593f0000001807f30644e72e131a029b85045b68181585d2833e84879b9709143e1f593f00000016020860135610340860151098303010690507f30644e72e131a029b85045b68181585d2833e84879b9709143e1f593f0000001807f30644e72e131a029b85045b68181585d2833e84879b9709143e1f593f000000160408601356103608601510983030106905080610180830152505050565b6101808101517f30644e72e131a029b85045b68181585d2833e84879b9709143e1f593f00000016102c0830151610320840151097f30644e72e131a029b85045b68181585d2833e84879b9709143e1f593f0000001806102a43560208601510961024435087f30644e72e131a029b85045b68181585d2833e84879b9709143e1f593f00000016040850151820890507f30644e72e131a029b85045b68181585d2833e84879b9709143e1f593f0000001806102c43560208701510961026435087f30644e72e131a029b85045b68181585d2833e84879b9709143e1f593f00000016040860151820890507f30644e72e131a029b85045b68181585d2833e84879b9709143e1f593f0000001604086015161028435087f30644e72e131a029b85045b68181585d2833e84879b9709143e1f593f0000001817f30644e72e131a029b85045b68181585d2833e84879b9709143e1f593f0000001848609097f30644e72e131a029b85045b68181585d2833e84879b9709143e1f593f00000016102e435820990507f30644e72e131a029b85045b68181585d2833e84879b9709143e1f593f00000016000880151820990507f30644e72e131a029b85045b68181585d2833e84879b9709143e1f593f000000180867f30644e72e131a029b85045b68181585d2833e84879b9709143e1f593f0000001030687087f30644e72e131a029b85045b68181585d2833e84879b9709143e1f593f000000180837f30644e72e131a029b85045b68181585d2833e84879b9709143e1f593f0000001030682089050806101a08901525050505050505050565b81518152602082015160208201525050565b818152826020820152505050565b81358152602082013560208201525050565b6040518151815260208201516020820152825160408201526020830151606082015260408260808360066107d05a03fa806110ee576000805260206000f35b50505050565b600060405183815284602082015285604082015260408160608360076107d05a03fa915081611127576000805260206000f35b825160408201526020830151606082015260408360808360066107d05a03fa915081611157576000805260206000f35b505050505050565b600060405183815284602082015285604082015260408360608360076107d05a03fa915081611192576000805260206000f35b505050505050565b6111ab83602084015184518461115f565b505050565b6101c08101604082015160405161010081016040526112107f2a277e3e5bdc15c3c58ac14dbda57df7248191bc3f11c6b7435ecc934eb756ae7f0ce652fa1ada129f8290bffe0156e14c0647b6b736194993997842d97b7870c38561108f565b6112857f30644e72e131a029b85045b68181585d2833e84879b9709143e1f593f00000016102643561024435097f15a0b5cc71216ad12510941840d70907b6b22e9873bff3c83eca4bb2258783997f2cc755ef4fe9176c913626c47d9c025cef2796e2442780638ff2ee75ef8b8b62866110f4565b6112d4610244357f28b208beb22ec78a47dcaf86f4247e11b2905180a597b9811c56c30e518d8c577f30422d6c50e197e8bf1323049055b9a0d5541de8eb5491f108dd00cce8129dbc866110f4565b611323610264357f0924ee3b3361b5bada9b3a7ce09a1951b3af1c6da50f8f15602f5aefe7d77c6c7f1e6e6e37526452002798a1317cea3997af7c96df1aaa1fe49e3e01cdf0a7abc9866110f4565b611372610284357f1389e3412e30e1577407fc366382f2b04a4eda77db33f9404b179159a2cedb7b7f0c7ed4eee23284cf8d136d61ca9d8527d25e9f35cbef30b5a4e4b922c5094bb2866110f4565b60a08401517f30644e72e131a029b85045b68181585d2833e84879b9709143e1f593f0000001837f30644e72e131a029b85045b68181585d2833e84879b9709143e1f593f0000001836102443508087f30644e72e131a029b85045b68181585d2833e84879b9709143e1f593f0000001847f30644e72e131a029b85045b68181585d2833e84879b9709143e1f593f000000180600286096102643508087f30644e72e131a029b85045b68181585d2833e84879b9709143e1f593f0000001857f30644e72e131a029b85045b68181585d2833e84879b9709143e1f593f000000180600387096102843508087f30644e72e131a029b85045b68181585d2833e84879b9709143e1f593f000000160008901517f30644e72e131a029b85045b68181585d2833e84879b9709143e1f593f0000001837f30644e72e131a029b85045b68181585d2833e84879b9709143e1f593f000000186880909097f30644e72e131a029b85045b68181585d2833e84879b9709143e1f593f00000016102c08a01516103208b01510961150760c460c0890161109d565b6115607f30644e72e131a029b85045b68181585d2833e84879b9709143e1f593f00000016101608c01517f30644e72e131a029b85045b68181585d2833e84879b9709143e1f593f00000018486080860c089018961119a565b7f30644e72e131a029b85045b68181585d2833e84879b9709143e1f593f0000001887f30644e72e131a029b85045b68181585d2833e84879b9709143e1f593f0000001806102a43560208f01510961024435080894507f30644e72e131a029b85045b68181585d2833e84879b9709143e1f593f0000001887f30644e72e131a029b85045b68181585d2833e84879b9709143e1f593f0000001806102c43560208f01510961026435080893507f30644e72e131a029b85045b68181585d2833e84879b9709143e1f593f00000016102e4357f30644e72e131a029b85045b68181585d2833e84879b9709143e1f593f000000160208d015160008e0151090992506116f57f30644e72e131a029b85045b68181585d2833e84879b9709143e1f593f0000001847f30644e72e131a029b85045b68181585d2833e84879b9709143e1f593f0000001878909097f2e43f085a76bc37d435bdc003a30fcf2a975129d5d62fd195cc42dc1e6bbf09e7f25789fc404a88d3e4ef03a457517b054b652b849e13e4096fdd4192be8255ac360408b0161115f565b6117046101046080890161109d565b61172060808b0151602061014401356101443560808b016110f4565b7f30644e72e131a029b85045b68181585d2833e84879b9709143e1f593f000000160808b015160808c01510961176481602061018401356101843560808c016110f4565b6117806102e08c015160a08a015160808b015160808c0161115f565b7f30644e72e131a029b85045b68181585d97816a916871ca8d3c208c16d87cfd47602060408a0101517f30644e72e131a029b85045b68181585d97816a916871ca8d3c208c16d87cfd470306602060408a0101527f30644e72e131a029b85045b68181585d97816a916871ca8d3c208c16d87cfd4760a08901517f30644e72e131a029b85045b68181585d97816a916871ca8d3c208c16d87cfd47030660a089015261182c888b6110af565b611839604089018b6110af565b611846608089018b6110af565b5050505050505050505050565b61020081016118666101c083018261107d565b61187d60c0830151602060040135600435846110f4565b61189460e0830151602060440135604435846110f4565b6118ac610100830151602060840135608435846110f4565b6118fd6101208301517f1c8157ce40561cab3e4a93ac610aaad54bb8418ef6fb3a6d07593373dbc0942c7f04f2d0d1324efe0a4882bccd5544feead4a8b36b17885c286007137766bb690a846110f4565b61194e6101408301517f3059fd81aad234cb519a646e375d05aa0682819f6648ee63834c21f23270d4107f0fc17a8d217f6c367a0d563653fc447727295376f916796d3356b4f2ca3da952846110f4565b5050565b7f30644e72e131a029b85045b68181585d2833e84879b9709143e1f593f00000016101a08201517f30644e72e131a029b85045b68181585d2833e84879b9709143e1f593f000000103067f30644e72e131a029b85045b68181585d2833e84879b9709143e1f593f00000018060c08401516102443509820890507f30644e72e131a029b85045b68181585d2833e84879b9709143e1f593f00000018060e08401516102643509820890507f30644e72e131a029b85045b68181585d2833e84879b9709143e1f593f0000001806101008401516102843509820890507f30644e72e131a029b85045b68181585d2833e84879b9709143e1f593f0000001806101208401516102a43509820890507f30644e72e131a029b85045b68181585d2833e84879b9709143e1f593f0000001806101408401516102c43509820890507f30644e72e131a029b85045b68181585d2833e84879b9709143e1f593f0000001806101608401516102e4350982089050611ad28160026001610240860161115f565b5050565b6000604051610240810160405261018081016101c082016102008301611afe6101c48461109d565b611b0a6102048361109d565b611b1a610160870151838661119a565b611b2483856110af565b7f30644e72e131a029b85045b68181585d97816a916871ca8d3c208c16d87cfd4760208501517f30644e72e131a029b85045b68181585d97816a916871ca8d3c208c16d87cfd47030660208501527f26186a2d65ee4d2f9c9a5b91f86597d35f192cd120caf7e935d8443d1938e23d60408501527f30441fd1b5d3370482c42152a8899027716989a6996c2535bc9f7fee8aaef79e60608501527f1970ea81dd6992adfbc571effb03503adbbb6a857f578403c6c40e22d65b3c0260808501527f054793348f12c0cf5622c340573cb277586319de359ab9389778f689786b1e4860a0850152611c1c60608701518460c0870161119a565b7f30644e72e131a029b85045b68181585d2833e84879b9709143e1f593f00000016060870151610160880151097f30644e72e131a029b85045b68181585d2833e84879b9709143e1f593f00000017f2d965651cdd9e4811f4e51b80ddca8a8b4a93ee17420aae6adaa01c2617c6e8582099050611c9a81848461119a565b611ca78260c087016110af565b611cb8610200880160c087016110af565b7f30644e72e131a029b85045b68181585d97816a916871ca8d3c208c16d87cfd476020610240018801517f30644e72e131a029b85045b68181585d97816a916871ca8d3c208c16d87cfd470306602061024001880152611d1f610240880160c087016110af565b7f198e9393920d483a7260bfb731fb5d25f1aa493335a9e71297e485b7aef312c26101008601527f1800deef121f1e76426a00665e5c4479674322d4f75edadd46debd5cd992f6ed6101208601527f090689d0585ff075ec9e99ad690c3395bc4b313370b38ef355acdadcd122975b6101408601527f12c85ea5db8c6deb4aab71808dcb408fe3d1e7690c43d37b4ce6cc0166fa7daa6101608601526020856101808760086107d05a03fa855181169650505050505050919050565b6040516103808101604052611dee610206565b611df88382610250565b611e0181610a51565b611e0b8382610d1e565b611e1481610e2b565b611e1d816111b0565b611e2681611853565b611e2f81611952565b611e3881611ad6565b61038082036040528060005260206000f35b600081905082602060180282011115611e6257600080fd5b92915050565b600081905082602060030282011115611e8057600080fd5b92915050565b6000806103608385031215611e9a57600080fd5b6000611ea885828601611e4a565b925050610300611eba85828601611e68565b9150509250929050565b611ecd81611eee565b82525050565b6000602082019050611ee86000830184611ec4565b92915050565b6000811515905091905056fea2646970667358221220e08002a357d08098543e959a64456a9f1f416c881e2b8488bfd5ef217d46f48464736f6c63430008040033",
  "linkReferences": {},
  "deployedLinkReferences": {}
}