{
  "_format": "hh-sol-artifact-1",
  "contractName": "PlonkVerifier",
  "sourceName": "contracts/selectVerifier.sol",
  "abi": [
    {
      "inputs": [
        {
          "internalType": "uint256[24]",
          "name": "_proof",
          "type": "uint256[24]"
        },
        {
          "internalType": "uint256[86]",
          "name": "_pubSignals",
          "type": "uint256[86]"
        }
      ],
      "name": "verifyProof",
      "outputs": [
        {
          "internalType": "bool",
          "name": "",
          "type": "bool"
        }
      ],
      "stateMutability": "view",
      "type": "function"
    }
  ],
  "bytecode": "0x60806040523480156200001157600080fd5b5061979380620000226000396000f3fe608060405234801561001057600080fd5b506004361061002b5760003560e01c806397d2813b14610030575b600080fd5b61004a600480360381019061004591906196e9565b610060565b6040516100579190619736565b60405180910390f35b600061963e565b600080600184846000805b821561009c5782840591508482028603905084955080945082820284039050829350809250610072565b60018411156100aa57600080fd5b60008612156100b95788860195505b85965050505050505092915050565b60405181602084028301815160208301925060005b82841015610120578185527f30644e72e131a029b85045b68181585d2833e84879b9709143e1f593f00000018451830991506020850194506020840193506100dd565b61014a7f30644e72e131a029b85045b68181585d2833e84879b9709143e1f593f000000183610067565b91506020850394506020840393508592505b828411156101c6577f30644e72e131a029b85045b68181585d2833e84879b9709143e1f593f00000018551830990507f30644e72e131a029b85045b68181585d2833e84879b9709143e1f593f000000184518309915080845260208503945060208403935061015c565b81845250505050505050565b7f30644e72e131a029b85045b68181585d2833e84879b9709143e1f593f00000018110610203576000805260206000f35b50565b610212610244356101d2565b61021e610264356101d2565b61022a610284356101d2565b6102366102a4356101d2565b6102426102c4356101d2565b61024e6102e4356101d2565b565b6000806040517e12991e3a26c788fdc43ab8273be1b619d3b2030404b5f0c15daceb641c627e81527f12035d3a6e18f1be17cd52b4ac2bb9fc29dc74b99fae5440db17731e57e3b6cb60208201527f122fd2c97716bdbd10cffd54f31b2eb2faac2429c5ad96d4cd9bdc52cbec1bd860408201527f12a55ecb471ee0a9d3df1d6fe5004ad6b39895d8403654f2d2a2a3d7a31541de60608201527e8b4280bd2d9de3a31a630f2b12d33091e9b46042ccf9e9da3affff27df7ba160808201527f2192aec6c39dd00474c39e3a1e8b32fbb8d55d81e497a4295336e0228f8b7a7260a08201527f216d0d8eb03043536624e0a563d7f1b29439744d5ac9bb90d800474c20ea821560c08201527f27e5d6fe2bc7265578bc612fc4bf19be381635eedb24eeb567b2f9e20c63fc2060e08201527f2b14ae9658c0d95361a5ae44ce7494180c44cff70066451a93ccb8028450bcaf6101008201527f201cde5fcda021564097f53f2990aa25f5528cebd32e0fe6d2fbe3cada8ddeb66101208201527f0d2662ac48ae91b773f9a8c461e89038a9443ec3b724d8fbee0e317b4aa89d706101408201527f0b18a935c1273ed5a62365040e85ed2c23d041601835bd3ba950442e03d27d2b6101608201527f16c69729881a9d7d081d079fb3dec1bc5922042114b168b44cf313eb84f1bab46101808201527f271f08b253baf3ad73939ba88de565f2eb0ec7921d9aaa89825724ce6e15ebd56101a08201527f2a0cd00c3209ca39a28ae8e29b13f4c7d895ee40d50ff21199ac7513d58aa1566101c08201527f2c25a64620958e7c4f1864e18d8354ed9a28b9b26b75728c41b9a6ab5c88dd0d6101e08201526000850135610200820152602085013561022082015260408501356102408201526060850135610260820152608085013561028082015260a08501356102a082015260c08501356102c082015260e08501356102e08201526101008501356103008201526101208501356103208201526101408501356103408201526101608501356103608201526101808501356103808201526101a08501356103a08201526101c08501356103c08201526101e08501356103e08201526102008501356104008201526102208501356104208201526102408501356104408201526102608501356104608201526102808501356104808201526102a08501356104a08201526102c08501356104c08201526102e08501356104e08201526103008501356105008201526103208501356105208201526103408501356105408201526103608501356105608201526103808501356105808201526103a08501356105a08201526103c08501356105c08201526103e08501356105e08201526104008501356106008201526104208501356106208201526104408501356106408201526104608501356106608201526104808501356106808201526104a08501356106a08201526104c08501356106c08201526104e08501356106e08201526105008501356107008201526105208501356107208201526105408501356107408201526105608501356107608201526105808501356107808201526105a08501356107a08201526105c08501356107c08201526105e08501356107e08201526106008501356108008201526106208501356108208201526106408501356108408201526106608501356108608201526106808501356108808201526106a08501356108a08201526106c08501356108c08201526106e08501356108e08201526107008501356109008201526107208501356109208201526107408501356109408201526107608501356109608201526107808501356109808201526107a08501356109a08201526107c08501356109c08201526107e08501356109e0820152610800850135610a00820152610820850135610a20820152610840850135610a40820152610860850135610a60820152610880850135610a808201526108a0850135610aa08201526108c0850135610ac08201526108e0850135610ae0820152610900850135610b00820152610920850135610b20820152610940850135610b40820152610960850135610b60820152610980850135610b808201526109a0850135610ba08201526109c0850135610bc08201526109e0850135610be0820152610a00850135610c00820152610a20850135610c20820152610a40850135610c40820152610a60850135610c60820152610a80850135610c80820152610aa0850135610ca0820152600435610cc0820152602060040135610ce0820152604435610d00820152602060440135610d20820152608435610d40820152602060840135610d608201527f30644e72e131a029b85045b68181585d2833e84879b9709143e1f593f0000001610d8082200692508260208501527f30644e72e131a029b85045b68181585d2833e84879b9709143e1f593f0000001602080860120066040850152602084015181526040840151602082015260c4356040820152602060c4013560608201527f30644e72e131a029b85045b68181585d2833e84879b9709143e1f593f0000001608082200691508160008501527f30644e72e131a029b85045b68181585d2833e84879b9709143e1f593f00000018283096102c08501528181526101043560208201526020610104013560408201526101443560608201526020610144013560808201526101843560a08201526020610184013560c08201527f30644e72e131a029b85045b68181585d2833e84879b9709143e1f593f000000160e082200691508160608501528181526102443560208201526102643560408201526102843560608201526102a43560808201526102c43560a08201526102e43560c08201527f30644e72e131a029b85045b68181585d2833e84879b9709143e1f593f000000160e08220068060c08601527f30644e72e131a029b85045b68181585d2833e84879b9709143e1f593f000000183850960a08601527f30644e72e131a029b85045b68181585d2833e84879b9709143e1f593f000000183840992507f30644e72e131a029b85045b68181585d2833e84879b9709143e1f593f000000183840992507f30644e72e131a029b85045b68181585d2833e84879b9709143e1f593f000000183840992507f30644e72e131a029b85045b68181585d2833e84879b9709143e1f593f000000183840992507f30644e72e131a029b85045b68181585d2833e84879b9709143e1f593f000000183840992507f30644e72e131a029b85045b68181585d2833e84879b9709143e1f593f000000183840992507f30644e72e131a029b85045b68181585d2833e84879b9709143e1f593f000000183840992507f30644e72e131a029b85045b68181585d2833e84879b9709143e1f593f000000183840992507f30644e72e131a029b85045b68181585d2833e84879b9709143e1f593f000000183840992507f30644e72e131a029b85045b68181585d2833e84879b9709143e1f593f000000183840992507f30644e72e131a029b85045b68181585d2833e84879b9709143e1f593f000000183840992507f30644e72e131a029b85045b68181585d2833e84879b9709143e1f593f000000183840992507f30644e72e131a029b85045b68181585d2833e84879b9709143e1f593f000000183840992508260808601527f30644e72e131a029b85045b68181585d2833e84879b9709143e1f593f0000001806001850301069250826102e0860152826103008601527f30644e72e131a029b85045b68181585d2833e84879b9709143e1f593f000000181820992508260e08601527f30644e72e131a029b85045b68181585d2833e84879b9709143e1f593f00000018184099250826101008601527f30644e72e131a029b85045b68181585d2833e84879b9709143e1f593f00000018184099250826101208601527f30644e72e131a029b85045b68181585d2833e84879b9709143e1f593f00000018184099250826101408601526101c435825260206101c4013560208301526102043560408301526020610204013560608301527f30644e72e131a029b85045b68181585d2833e84879b9709143e1f593f00000016080832006610160860152505050505050565b60017f30644e72e131a029b85045b68181585d2833e84879b9709143e1f593f0000001807f30644e72e131a029b85045b68181585d2833e84879b9709143e1f593f0000001836060860151030106612000096103208301527f30644e72e131a029b85045b68181585d2833e84879b9709143e1f593f00000017e6fab49b869ae62001deac878b2667bd31bf3e28e3a2d764aa49b8d9bbdd310820990507f30644e72e131a029b85045b68181585d2833e84879b9709143e1f593f0000001807f30644e72e131a029b85045b68181585d2833e84879b9709143e1f593f0000001836060860151030106612000096103408301527f30644e72e131a029b85045b68181585d2833e84879b9709143e1f593f00000017e6fab49b869ae62001deac878b2667bd31bf3e28e3a2d764aa49b8d9bbdd310820990507f30644e72e131a029b85045b68181585d2833e84879b9709143e1f593f0000001807f30644e72e131a029b85045b68181585d2833e84879b9709143e1f593f0000001836060860151030106612000096103608301527f30644e72e131a029b85045b68181585d2833e84879b9709143e1f593f00000017e6fab49b869ae62001deac878b2667bd31bf3e28e3a2d764aa49b8d9bbdd310820990507f30644e72e131a029b85045b68181585d2833e84879b9709143e1f593f0000001807f30644e72e131a029b85045b68181585d2833e84879b9709143e1f593f0000001836060860151030106612000096103808301527f30644e72e131a029b85045b68181585d2833e84879b9709143e1f593f00000017e6fab49b869ae62001deac878b2667bd31bf3e28e3a2d764aa49b8d9bbdd310820990507f30644e72e131a029b85045b68181585d2833e84879b9709143e1f593f0000001807f30644e72e131a029b85045b68181585d2833e84879b9709143e1f593f0000001836060860151030106612000096103a08301527f30644e72e131a029b85045b68181585d2833e84879b9709143e1f593f00000017e6fab49b869ae62001deac878b2667bd31bf3e28e3a2d764aa49b8d9bbdd310820990507f30644e72e131a029b85045b68181585d2833e84879b9709143e1f593f0000001807f30644e72e131a029b85045b68181585d2833e84879b9709143e1f593f0000001836060860151030106612000096103c08301527f30644e72e131a029b85045b68181585d2833e84879b9709143e1f593f00000017e6fab49b869ae62001deac878b2667bd31bf3e28e3a2d764aa49b8d9bbdd310820990507f30644e72e131a029b85045b68181585d2833e84879b9709143e1f593f0000001807f30644e72e131a029b85045b68181585d2833e84879b9709143e1f593f0000001836060860151030106612000096103e08301527f30644e72e131a029b85045b68181585d2833e84879b9709143e1f593f00000017e6fab49b869ae62001deac878b2667bd31bf3e28e3a2d764aa49b8d9bbdd310820990507f30644e72e131a029b85045b68181585d2833e84879b9709143e1f593f0000001807f30644e72e131a029b85045b68181585d2833e84879b9709143e1f593f0000001836060860151030106612000096104008301527f30644e72e131a029b85045b68181585d2833e84879b9709143e1f593f00000017e6fab49b869ae62001deac878b2667bd31bf3e28e3a2d764aa49b8d9bbdd310820990507f30644e72e131a029b85045b68181585d2833e84879b9709143e1f593f0000001807f30644e72e131a029b85045b68181585d2833e84879b9709143e1f593f0000001836060860151030106612000096104208301527f30644e72e131a029b85045b68181585d2833e84879b9709143e1f593f00000017e6fab49b869ae62001deac878b2667bd31bf3e28e3a2d764aa49b8d9bbdd310820990507f30644e72e131a029b85045b68181585d2833e84879b9709143e1f593f0000001807f30644e72e131a029b85045b68181585d2833e84879b9709143e1f593f0000001836060860151030106612000096104408301527f30644e72e131a029b85045b68181585d2833e84879b9709143e1f593f00000017e6fab49b869ae62001deac878b2667bd31bf3e28e3a2d764aa49b8d9bbdd310820990507f30644e72e131a029b85045b68181585d2833e84879b9709143e1f593f0000001807f30644e72e131a029b85045b68181585d2833e84879b9709143e1f593f0000001836060860151030106612000096104608301527f30644e72e131a029b85045b68181585d2833e84879b9709143e1f593f00000017e6fab49b869ae62001deac878b2667bd31bf3e28e3a2d764aa49b8d9bbdd310820990507f30644e72e131a029b85045b68181585d2833e84879b9709143e1f593f0000001807f30644e72e131a029b85045b68181585d2833e84879b9709143e1f593f0000001836060860151030106612000096104808301527f30644e72e131a029b85045b68181585d2833e84879b9709143e1f593f00000017e6fab49b869ae62001deac878b2667bd31bf3e28e3a2d764aa49b8d9bbdd310820990507f30644e72e131a029b85045b68181585d2833e84879b9709143e1f593f0000001807f30644e72e131a029b85045b68181585d2833e84879b9709143e1f593f0000001836060860151030106612000096104a08301527f30644e72e131a029b85045b68181585d2833e84879b9709143e1f593f00000017e6fab49b869ae62001deac878b2667bd31bf3e28e3a2d764aa49b8d9bbdd310820990507f30644e72e131a029b85045b68181585d2833e84879b9709143e1f593f0000001807f30644e72e131a029b85045b68181585d2833e84879b9709143e1f593f0000001836060860151030106612000096104c08301527f30644e72e131a029b85045b68181585d2833e84879b9709143e1f593f00000017e6fab49b869ae62001deac878b2667bd31bf3e28e3a2d764aa49b8d9bbdd310820990507f30644e72e131a029b85045b68181585d2833e84879b9709143e1f593f0000001807f30644e72e131a029b85045b68181585d2833e84879b9709143e1f593f0000001836060860151030106612000096104e08301527f30644e72e131a029b85045b68181585d2833e84879b9709143e1f593f00000017e6fab49b869ae62001deac878b2667bd31bf3e28e3a2d764aa49b8d9bbdd310820990507f30644e72e131a029b85045b68181585d2833e84879b9709143e1f593f0000001807f30644e72e131a029b85045b68181585d2833e84879b9709143e1f593f0000001836060860151030106612000096105008301527f30644e72e131a029b85045b68181585d2833e84879b9709143e1f593f00000017e6fab49b869ae62001deac878b2667bd31bf3e28e3a2d764aa49b8d9bbdd310820990507f30644e72e131a029b85045b68181585d2833e84879b9709143e1f593f0000001807f30644e72e131a029b85045b68181585d2833e84879b9709143e1f593f0000001836060860151030106612000096105208301527f30644e72e131a029b85045b68181585d2833e84879b9709143e1f593f00000017e6fab49b869ae62001deac878b2667bd31bf3e28e3a2d764aa49b8d9bbdd310820990507f30644e72e131a029b85045b68181585d2833e84879b9709143e1f593f0000001807f30644e72e131a029b85045b68181585d2833e84879b9709143e1f593f0000001836060860151030106612000096105408301527f30644e72e131a029b85045b68181585d2833e84879b9709143e1f593f00000017e6fab49b869ae62001deac878b2667bd31bf3e28e3a2d764aa49b8d9bbdd310820990507f30644e72e131a029b85045b68181585d2833e84879b9709143e1f593f0000001807f30644e72e131a029b85045b68181585d2833e84879b9709143e1f593f0000001836060860151030106612000096105608301527f30644e72e131a029b85045b68181585d2833e84879b9709143e1f593f00000017e6fab49b869ae62001deac878b2667bd31bf3e28e3a2d764aa49b8d9bbdd310820990507f30644e72e131a029b85045b68181585d2833e84879b9709143e1f593f0000001807f30644e72e131a029b85045b68181585d2833e84879b9709143e1f593f0000001836060860151030106612000096105808301527f30644e72e131a029b85045b68181585d2833e84879b9709143e1f593f00000017e6fab49b869ae62001deac878b2667bd31bf3e28e3a2d764aa49b8d9bbdd310820990507f30644e72e131a029b85045b68181585d2833e84879b9709143e1f593f0000001807f30644e72e131a029b85045b68181585d2833e84879b9709143e1f593f0000001836060860151030106612000096105a08301527f30644e72e131a029b85045b68181585d2833e84879b9709143e1f593f00000017e6fab49b869ae62001deac878b2667bd31bf3e28e3a2d764aa49b8d9bbdd310820990507f30644e72e131a029b85045b68181585d2833e84879b9709143e1f593f0000001807f30644e72e131a029b85045b68181585d2833e84879b9709143e1f593f0000001836060860151030106612000096105c08301527f30644e72e131a029b85045b68181585d2833e84879b9709143e1f593f00000017e6fab49b869ae62001deac878b2667bd31bf3e28e3a2d764aa49b8d9bbdd310820990507f30644e72e131a029b85045b68181585d2833e84879b9709143e1f593f0000001807f30644e72e131a029b85045b68181585d2833e84879b9709143e1f593f0000001836060860151030106612000096105e08301527f30644e72e131a029b85045b68181585d2833e84879b9709143e1f593f00000017e6fab49b869ae62001deac878b2667bd31bf3e28e3a2d764aa49b8d9bbdd310820990507f30644e72e131a029b85045b68181585d2833e84879b9709143e1f593f0000001807f30644e72e131a029b85045b68181585d2833e84879b9709143e1f593f0000001836060860151030106612000096106008301527f30644e72e131a029b85045b68181585d2833e84879b9709143e1f593f00000017e6fab49b869ae62001deac878b2667bd31bf3e28e3a2d764aa49b8d9bbdd310820990507f30644e72e131a029b85045b68181585d2833e84879b9709143e1f593f0000001807f30644e72e131a029b85045b68181585d2833e84879b9709143e1f593f0000001836060860151030106612000096106208301527f30644e72e131a029b85045b68181585d2833e84879b9709143e1f593f00000017e6fab49b869ae62001deac878b2667bd31bf3e28e3a2d764aa49b8d9bbdd310820990507f30644e72e131a029b85045b68181585d2833e84879b9709143e1f593f0000001807f30644e72e131a029b85045b68181585d2833e84879b9709143e1f593f0000001836060860151030106612000096106408301527f30644e72e131a029b85045b68181585d2833e84879b9709143e1f593f00000017e6fab49b869ae62001deac878b2667bd31bf3e28e3a2d764aa49b8d9bbdd310820990507f30644e72e131a029b85045b68181585d2833e84879b9709143e1f593f0000001807f30644e72e131a029b85045b68181585d2833e84879b9709143e1f593f0000001836060860151030106612000096106608301527f30644e72e131a029b85045b68181585d2833e84879b9709143e1f593f00000017e6fab49b869ae62001deac878b2667bd31bf3e28e3a2d764aa49b8d9bbdd310820990507f30644e72e131a029b85045b68181585d2833e84879b9709143e1f593f0000001807f30644e72e131a029b85045b68181585d2833e84879b9709143e1f593f0000001836060860151030106612000096106808301527f30644e72e131a029b85045b68181585d2833e84879b9709143e1f593f00000017e6fab49b869ae62001deac878b2667bd31bf3e28e3a2d764aa49b8d9bbdd310820990507f30644e72e131a029b85045b68181585d2833e84879b9709143e1f593f0000001807f30644e72e131a029b85045b68181585d2833e84879b9709143e1f593f0000001836060860151030106612000096106a08301527f30644e72e131a029b85045b68181585d2833e84879b9709143e1f593f00000017e6fab49b869ae62001deac878b2667bd31bf3e28e3a2d764aa49b8d9bbdd310820990507f30644e72e131a029b85045b68181585d2833e84879b9709143e1f593f0000001807f30644e72e131a029b85045b68181585d2833e84879b9709143e1f593f0000001836060860151030106612000096106c08301527f30644e72e131a029b85045b68181585d2833e84879b9709143e1f593f00000017e6fab49b869ae62001deac878b2667bd31bf3e28e3a2d764aa49b8d9bbdd310820990507f30644e72e131a029b85045b68181585d2833e84879b9709143e1f593f0000001807f30644e72e131a029b85045b68181585d2833e84879b9709143e1f593f0000001836060860151030106612000096106e08301527f30644e72e131a029b85045b68181585d2833e84879b9709143e1f593f00000017e6fab49b869ae62001deac878b2667bd31bf3e28e3a2d764aa49b8d9bbdd310820990507f30644e72e131a029b85045b68181585d2833e84879b9709143e1f593f0000001807f30644e72e131a029b85045b68181585d2833e84879b9709143e1f593f0000001836060860151030106612000096107008301527f30644e72e131a029b85045b68181585d2833e84879b9709143e1f593f00000017e6fab49b869ae62001deac878b2667bd31bf3e28e3a2d764aa49b8d9bbdd310820990507f30644e72e131a029b85045b68181585d2833e84879b9709143e1f593f0000001807f30644e72e131a029b85045b68181585d2833e84879b9709143e1f593f0000001836060860151030106612000096107208301527f30644e72e131a029b85045b68181585d2833e84879b9709143e1f593f00000017e6fab49b869ae62001deac878b2667bd31bf3e28e3a2d764aa49b8d9bbdd310820990507f30644e72e131a029b85045b68181585d2833e84879b9709143e1f593f0000001807f30644e72e131a029b85045b68181585d2833e84879b9709143e1f593f0000001836060860151030106612000096107408301527f30644e72e131a029b85045b68181585d2833e84879b9709143e1f593f00000017e6fab49b869ae62001deac878b2667bd31bf3e28e3a2d764aa49b8d9bbdd310820990507f30644e72e131a029b85045b68181585d2833e84879b9709143e1f593f0000001807f30644e72e131a029b85045b68181585d2833e84879b9709143e1f593f0000001836060860151030106612000096107608301527f30644e72e131a029b85045b68181585d2833e84879b9709143e1f593f00000017e6fab49b869ae62001deac878b2667bd31bf3e28e3a2d764aa49b8d9bbdd310820990507f30644e72e131a029b85045b68181585d2833e84879b9709143e1f593f0000001807f30644e72e131a029b85045b68181585d2833e84879b9709143e1f593f0000001836060860151030106612000096107808301527f30644e72e131a029b85045b68181585d2833e84879b9709143e1f593f00000017e6fab49b869ae62001deac878b2667bd31bf3e28e3a2d764aa49b8d9bbdd310820990507f30644e72e131a029b85045b68181585d2833e84879b9709143e1f593f0000001807f30644e72e131a029b85045b68181585d2833e84879b9709143e1f593f0000001836060860151030106612000096107a08301527f30644e72e131a029b85045b68181585d2833e84879b9709143e1f593f00000017e6fab49b869ae62001deac878b2667bd31bf3e28e3a2d764aa49b8d9bbdd310820990507f30644e72e131a029b85045b68181585d2833e84879b9709143e1f593f0000001807f30644e72e131a029b85045b68181585d2833e84879b9709143e1f593f0000001836060860151030106612000096107c08301527f30644e72e131a029b85045b68181585d2833e84879b9709143e1f593f00000017e6fab49b869ae62001deac878b2667bd31bf3e28e3a2d764aa49b8d9bbdd310820990507f30644e72e131a029b85045b68181585d2833e84879b9709143e1f593f0000001807f30644e72e131a029b85045b68181585d2833e84879b9709143e1f593f0000001836060860151030106612000096107e08301527f30644e72e131a029b85045b68181585d2833e84879b9709143e1f593f00000017e6fab49b869ae62001deac878b2667bd31bf3e28e3a2d764aa49b8d9bbdd310820990507f30644e72e131a029b85045b68181585d2833e84879b9709143e1f593f0000001807f30644e72e131a029b85045b68181585d2833e84879b9709143e1f593f0000001836060860151030106612000096108008301527f30644e72e131a029b85045b68181585d2833e84879b9709143e1f593f00000017e6fab49b869ae62001deac878b2667bd31bf3e28e3a2d764aa49b8d9bbdd310820990507f30644e72e131a029b85045b68181585d2833e84879b9709143e1f593f0000001807f30644e72e131a029b85045b68181585d2833e84879b9709143e1f593f0000001836060860151030106612000096108208301527f30644e72e131a029b85045b68181585d2833e84879b9709143e1f593f00000017e6fab49b869ae62001deac878b2667bd31bf3e28e3a2d764aa49b8d9bbdd310820990507f30644e72e131a029b85045b68181585d2833e84879b9709143e1f593f0000001807f30644e72e131a029b85045b68181585d2833e84879b9709143e1f593f0000001836060860151030106612000096108408301527f30644e72e131a029b85045b68181585d2833e84879b9709143e1f593f00000017e6fab49b869ae62001deac878b2667bd31bf3e28e3a2d764aa49b8d9bbdd310820990507f30644e72e131a029b85045b68181585d2833e84879b9709143e1f593f0000001807f30644e72e131a029b85045b68181585d2833e84879b9709143e1f593f0000001836060860151030106612000096108608301527f30644e72e131a029b85045b68181585d2833e84879b9709143e1f593f00000017e6fab49b869ae62001deac878b2667bd31bf3e28e3a2d764aa49b8d9bbdd310820990507f30644e72e131a029b85045b68181585d2833e84879b9709143e1f593f0000001807f30644e72e131a029b85045b68181585d2833e84879b9709143e1f593f0000001836060860151030106612000096108808301527f30644e72e131a029b85045b68181585d2833e84879b9709143e1f593f00000017e6fab49b869ae62001deac878b2667bd31bf3e28e3a2d764aa49b8d9bbdd310820990507f30644e72e131a029b85045b68181585d2833e84879b9709143e1f593f0000001807f30644e72e131a029b85045b68181585d2833e84879b9709143e1f593f0000001836060860151030106612000096108a08301527f30644e72e131a029b85045b68181585d2833e84879b9709143e1f593f00000017e6fab49b869ae62001deac878b2667bd31bf3e28e3a2d764aa49b8d9bbdd310820990507f30644e72e131a029b85045b68181585d2833e84879b9709143e1f593f0000001807f30644e72e131a029b85045b68181585d2833e84879b9709143e1f593f0000001836060860151030106612000096108c08301527f30644e72e131a029b85045b68181585d2833e84879b9709143e1f593f00000017e6fab49b869ae62001deac878b2667bd31bf3e28e3a2d764aa49b8d9bbdd310820990507f30644e72e131a029b85045b68181585d2833e84879b9709143e1f593f0000001807f30644e72e131a029b85045b68181585d2833e84879b9709143e1f593f0000001836060860151030106612000096108e08301527f30644e72e131a029b85045b68181585d2833e84879b9709143e1f593f00000017e6fab49b869ae62001deac878b2667bd31bf3e28e3a2d764aa49b8d9bbdd310820990507f30644e72e131a029b85045b68181585d2833e84879b9709143e1f593f0000001807f30644e72e131a029b85045b68181585d2833e84879b9709143e1f593f0000001836060860151030106612000096109008301527f30644e72e131a029b85045b68181585d2833e84879b9709143e1f593f00000017e6fab49b869ae62001deac878b2667bd31bf3e28e3a2d764aa49b8d9bbdd310820990507f30644e72e131a029b85045b68181585d2833e84879b9709143e1f593f0000001807f30644e72e131a029b85045b68181585d2833e84879b9709143e1f593f0000001836060860151030106612000096109208301527f30644e72e131a029b85045b68181585d2833e84879b9709143e1f593f00000017e6fab49b869ae62001deac878b2667bd31bf3e28e3a2d764aa49b8d9bbdd310820990507f30644e72e131a029b85045b68181585d2833e84879b9709143e1f593f0000001807f30644e72e131a029b85045b68181585d2833e84879b9709143e1f593f0000001836060860151030106612000096109408301527f30644e72e131a029b85045b68181585d2833e84879b9709143e1f593f00000017e6fab49b869ae62001deac878b2667bd31bf3e28e3a2d764aa49b8d9bbdd310820990507f30644e72e131a029b85045b68181585d2833e84879b9709143e1f593f0000001807f30644e72e131a029b85045b68181585d2833e84879b9709143e1f593f0000001836060860151030106612000096109608301527f30644e72e131a029b85045b68181585d2833e84879b9709143e1f593f00000017e6fab49b869ae62001deac878b2667bd31bf3e28e3a2d764aa49b8d9bbdd310820990507f30644e72e131a029b85045b68181585d2833e84879b9709143e1f593f0000001807f30644e72e131a029b85045b68181585d2833e84879b9709143e1f593f0000001836060860151030106612000096109808301527f30644e72e131a029b85045b68181585d2833e84879b9709143e1f593f00000017e6fab49b869ae62001deac878b2667bd31bf3e28e3a2d764aa49b8d9bbdd310820990507f30644e72e131a029b85045b68181585d2833e84879b9709143e1f593f0000001807f30644e72e131a029b85045b68181585d2833e84879b9709143e1f593f0000001836060860151030106612000096109a08301527f30644e72e131a029b85045b68181585d2833e84879b9709143e1f593f00000017e6fab49b869ae62001deac878b2667bd31bf3e28e3a2d764aa49b8d9bbdd310820990507f30644e72e131a029b85045b68181585d2833e84879b9709143e1f593f0000001807f30644e72e131a029b85045b68181585d2833e84879b9709143e1f593f0000001836060860151030106612000096109c08301527f30644e72e131a029b85045b68181585d2833e84879b9709143e1f593f00000017e6fab49b869ae62001deac878b2667bd31bf3e28e3a2d764aa49b8d9bbdd310820990507f30644e72e131a029b85045b68181585d2833e84879b9709143e1f593f0000001807f30644e72e131a029b85045b68181585d2833e84879b9709143e1f593f0000001836060860151030106612000096109e08301527f30644e72e131a029b85045b68181585d2833e84879b9709143e1f593f00000017e6fab49b869ae62001deac878b2667bd31bf3e28e3a2d764aa49b8d9bbdd310820990507f30644e72e131a029b85045b68181585d2833e84879b9709143e1f593f0000001807f30644e72e131a029b85045b68181585d2833e84879b9709143e1f593f000000183606086015103010661200009610a008301527f30644e72e131a029b85045b68181585d2833e84879b9709143e1f593f00000017e6fab49b869ae62001deac878b2667bd31bf3e28e3a2d764aa49b8d9bbdd310820990507f30644e72e131a029b85045b68181585d2833e84879b9709143e1f593f0000001807f30644e72e131a029b85045b68181585d2833e84879b9709143e1f593f000000183606086015103010661200009610a208301527f30644e72e131a029b85045b68181585d2833e84879b9709143e1f593f00000017e6fab49b869ae62001deac878b2667bd31bf3e28e3a2d764aa49b8d9bbdd310820990507f30644e72e131a029b85045b68181585d2833e84879b9709143e1f593f0000001807f30644e72e131a029b85045b68181585d2833e84879b9709143e1f593f000000183606086015103010661200009610a408301527f30644e72e131a029b85045b68181585d2833e84879b9709143e1f593f00000017e6fab49b869ae62001deac878b2667bd31bf3e28e3a2d764aa49b8d9bbdd310820990507f30644e72e131a029b85045b68181585d2833e84879b9709143e1f593f0000001807f30644e72e131a029b85045b68181585d2833e84879b9709143e1f593f000000183606086015103010661200009610a608301527f30644e72e131a029b85045b68181585d2833e84879b9709143e1f593f00000017e6fab49b869ae62001deac878b2667bd31bf3e28e3a2d764aa49b8d9bbdd310820990507f30644e72e131a029b85045b68181585d2833e84879b9709143e1f593f0000001807f30644e72e131a029b85045b68181585d2833e84879b9709143e1f593f000000183606086015103010661200009610a808301527f30644e72e131a029b85045b68181585d2833e84879b9709143e1f593f00000017e6fab49b869ae62001deac878b2667bd31bf3e28e3a2d764aa49b8d9bbdd310820990507f30644e72e131a029b85045b68181585d2833e84879b9709143e1f593f0000001807f30644e72e131a029b85045b68181585d2833e84879b9709143e1f593f000000183606086015103010661200009610aa08301527f30644e72e131a029b85045b68181585d2833e84879b9709143e1f593f00000017e6fab49b869ae62001deac878b2667bd31bf3e28e3a2d764aa49b8d9bbdd310820990507f30644e72e131a029b85045b68181585d2833e84879b9709143e1f593f0000001807f30644e72e131a029b85045b68181585d2833e84879b9709143e1f593f000000183606086015103010661200009610ac08301527f30644e72e131a029b85045b68181585d2833e84879b9709143e1f593f00000017e6fab49b869ae62001deac878b2667bd31bf3e28e3a2d764aa49b8d9bbdd310820990507f30644e72e131a029b85045b68181585d2833e84879b9709143e1f593f0000001807f30644e72e131a029b85045b68181585d2833e84879b9709143e1f593f000000183606086015103010661200009610ae08301527f30644e72e131a029b85045b68181585d2833e84879b9709143e1f593f00000017e6fab49b869ae62001deac878b2667bd31bf3e28e3a2d764aa49b8d9bbdd310820990507f30644e72e131a029b85045b68181585d2833e84879b9709143e1f593f0000001807f30644e72e131a029b85045b68181585d2833e84879b9709143e1f593f000000183606086015103010661200009610b008301527f30644e72e131a029b85045b68181585d2833e84879b9709143e1f593f00000017e6fab49b869ae62001deac878b2667bd31bf3e28e3a2d764aa49b8d9bbdd310820990507f30644e72e131a029b85045b68181585d2833e84879b9709143e1f593f0000001807f30644e72e131a029b85045b68181585d2833e84879b9709143e1f593f000000183606086015103010661200009610b208301527f30644e72e131a029b85045b68181585d2833e84879b9709143e1f593f00000017e6fab49b869ae62001deac878b2667bd31bf3e28e3a2d764aa49b8d9bbdd310820990507f30644e72e131a029b85045b68181585d2833e84879b9709143e1f593f0000001807f30644e72e131a029b85045b68181585d2833e84879b9709143e1f593f000000183606086015103010661200009610b408301527f30644e72e131a029b85045b68181585d2833e84879b9709143e1f593f00000017e6fab49b869ae62001deac878b2667bd31bf3e28e3a2d764aa49b8d9bbdd310820990507f30644e72e131a029b85045b68181585d2833e84879b9709143e1f593f0000001807f30644e72e131a029b85045b68181585d2833e84879b9709143e1f593f000000183606086015103010661200009610b608301527f30644e72e131a029b85045b68181585d2833e84879b9709143e1f593f00000017e6fab49b869ae62001deac878b2667bd31bf3e28e3a2d764aa49b8d9bbdd310820990507f30644e72e131a029b85045b68181585d2833e84879b9709143e1f593f0000001807f30644e72e131a029b85045b68181585d2833e84879b9709143e1f593f000000183606086015103010661200009610b808301527f30644e72e131a029b85045b68181585d2833e84879b9709143e1f593f00000017e6fab49b869ae62001deac878b2667bd31bf3e28e3a2d764aa49b8d9bbdd310820990507f30644e72e131a029b85045b68181585d2833e84879b9709143e1f593f0000001807f30644e72e131a029b85045b68181585d2833e84879b9709143e1f593f000000183606086015103010661200009610ba08301527f30644e72e131a029b85045b68181585d2833e84879b9709143e1f593f00000017e6fab49b869ae62001deac878b2667bd31bf3e28e3a2d764aa49b8d9bbdd310820990507f30644e72e131a029b85045b68181585d2833e84879b9709143e1f593f0000001807f30644e72e131a029b85045b68181585d2833e84879b9709143e1f593f000000183606086015103010661200009610bc08301527f30644e72e131a029b85045b68181585d2833e84879b9709143e1f593f00000017e6fab49b869ae62001deac878b2667bd31bf3e28e3a2d764aa49b8d9bbdd310820990507f30644e72e131a029b85045b68181585d2833e84879b9709143e1f593f0000001807f30644e72e131a029b85045b68181585d2833e84879b9709143e1f593f000000183606086015103010661200009610be08301527f30644e72e131a029b85045b68181585d2833e84879b9709143e1f593f00000017e6fab49b869ae62001deac878b2667bd31bf3e28e3a2d764aa49b8d9bbdd310820990507f30644e72e131a029b85045b68181585d2833e84879b9709143e1f593f0000001807f30644e72e131a029b85045b68181585d2833e84879b9709143e1f593f000000183606086015103010661200009610c008301527f30644e72e131a029b85045b68181585d2833e84879b9709143e1f593f00000017e6fab49b869ae62001deac878b2667bd31bf3e28e3a2d764aa49b8d9bbdd310820990507f30644e72e131a029b85045b68181585d2833e84879b9709143e1f593f0000001807f30644e72e131a029b85045b68181585d2833e84879b9709143e1f593f000000183606086015103010661200009610c208301527f30644e72e131a029b85045b68181585d2833e84879b9709143e1f593f00000017e6fab49b869ae62001deac878b2667bd31bf3e28e3a2d764aa49b8d9bbdd310820990507f30644e72e131a029b85045b68181585d2833e84879b9709143e1f593f0000001807f30644e72e131a029b85045b68181585d2833e84879b9709143e1f593f000000183606086015103010661200009610c408301527f30644e72e131a029b85045b68181585d2833e84879b9709143e1f593f00000017e6fab49b869ae62001deac878b2667bd31bf3e28e3a2d764aa49b8d9bbdd310820990507f30644e72e131a029b85045b68181585d2833e84879b9709143e1f593f0000001807f30644e72e131a029b85045b68181585d2833e84879b9709143e1f593f000000183606086015103010661200009610c608301527f30644e72e131a029b85045b68181585d2833e84879b9709143e1f593f00000017e6fab49b869ae62001deac878b2667bd31bf3e28e3a2d764aa49b8d9bbdd310820990507f30644e72e131a029b85045b68181585d2833e84879b9709143e1f593f0000001807f30644e72e131a029b85045b68181585d2833e84879b9709143e1f593f000000183606086015103010661200009610c808301527f30644e72e131a029b85045b68181585d2833e84879b9709143e1f593f00000017e6fab49b869ae62001deac878b2667bd31bf3e28e3a2d764aa49b8d9bbdd310820990507f30644e72e131a029b85045b68181585d2833e84879b9709143e1f593f0000001807f30644e72e131a029b85045b68181585d2833e84879b9709143e1f593f000000183606086015103010661200009610ca08301527f30644e72e131a029b85045b68181585d2833e84879b9709143e1f593f00000017e6fab49b869ae62001deac878b2667bd31bf3e28e3a2d764aa49b8d9bbdd310820990507f30644e72e131a029b85045b68181585d2833e84879b9709143e1f593f0000001807f30644e72e131a029b85045b68181585d2833e84879b9709143e1f593f000000183606086015103010661200009610cc08301527f30644e72e131a029b85045b68181585d2833e84879b9709143e1f593f00000017e6fab49b869ae62001deac878b2667bd31bf3e28e3a2d764aa49b8d9bbdd310820990507f30644e72e131a029b85045b68181585d2833e84879b9709143e1f593f0000001807f30644e72e131a029b85045b68181585d2833e84879b9709143e1f593f000000183606086015103010661200009610ce08301527f30644e72e131a029b85045b68181585d2833e84879b9709143e1f593f00000017e6fab49b869ae62001deac878b2667bd31bf3e28e3a2d764aa49b8d9bbdd310820990507f30644e72e131a029b85045b68181585d2833e84879b9709143e1f593f0000001807f30644e72e131a029b85045b68181585d2833e84879b9709143e1f593f000000183606086015103010661200009610d008301527f30644e72e131a029b85045b68181585d2833e84879b9709143e1f593f00000017e6fab49b869ae62001deac878b2667bd31bf3e28e3a2d764aa49b8d9bbdd310820990507f30644e72e131a029b85045b68181585d2833e84879b9709143e1f593f0000001807f30644e72e131a029b85045b68181585d2833e84879b9709143e1f593f000000183606086015103010661200009610d208301527f30644e72e131a029b85045b68181585d2833e84879b9709143e1f593f00000017e6fab49b869ae62001deac878b2667bd31bf3e28e3a2d764aa49b8d9bbdd310820990507f30644e72e131a029b85045b68181585d2833e84879b9709143e1f593f0000001807f30644e72e131a029b85045b68181585d2833e84879b9709143e1f593f000000183606086015103010661200009610d408301527f30644e72e131a029b85045b68181585d2833e84879b9709143e1f593f00000017e6fab49b869ae62001deac878b2667bd31bf3e28e3a2d764aa49b8d9bbdd310820990507f30644e72e131a029b85045b68181585d2833e84879b9709143e1f593f0000001807f30644e72e131a029b85045b68181585d2833e84879b9709143e1f593f000000183606086015103010661200009610d608301527f30644e72e131a029b85045b68181585d2833e84879b9709143e1f593f00000017e6fab49b869ae62001deac878b2667bd31bf3e28e3a2d764aa49b8d9bbdd310820990507f30644e72e131a029b85045b68181585d2833e84879b9709143e1f593f0000001807f30644e72e131a029b85045b68181585d2833e84879b9709143e1f593f000000183606086015103010661200009610d808301527f30644e72e131a029b85045b68181585d2833e84879b9709143e1f593f00000017e6fab49b869ae62001deac878b2667bd31bf3e28e3a2d764aa49b8d9bbdd310820990507f30644e72e131a029b85045b68181585d2833e84879b9709143e1f593f0000001807f30644e72e131a029b85045b68181585d2833e84879b9709143e1f593f000000183606086015103010661200009610da08301527f30644e72e131a029b85045b68181585d2833e84879b9709143e1f593f00000017e6fab49b869ae62001deac878b2667bd31bf3e28e3a2d764aa49b8d9bbdd310820990507f30644e72e131a029b85045b68181585d2833e84879b9709143e1f593f0000001807f30644e72e131a029b85045b68181585d2833e84879b9709143e1f593f000000183606086015103010661200009610dc08301526141e6605761030084016100c8565b6102e0820151600191507f30644e72e131a029b85045b68181585d2833e84879b9709143e1f593f000000181610320850151096103208401527f30644e72e131a029b85045b68181585d2833e84879b9709143e1f593f00000017e6fab49b869ae62001deac878b2667bd31bf3e28e3a2d764aa49b8d9bbdd310830991507f30644e72e131a029b85045b68181585d2833e84879b9709143e1f593f000000180826103408601510983096103408401527f30644e72e131a029b85045b68181585d2833e84879b9709143e1f593f00000017e6fab49b869ae62001deac878b2667bd31bf3e28e3a2d764aa49b8d9bbdd310830991507f30644e72e131a029b85045b68181585d2833e84879b9709143e1f593f000000180826103608601510983096103608401527f30644e72e131a029b85045b68181585d2833e84879b9709143e1f593f00000017e6fab49b869ae62001deac878b2667bd31bf3e28e3a2d764aa49b8d9bbdd310830991507f30644e72e131a029b85045b68181585d2833e84879b9709143e1f593f000000180826103808601510983096103808401527f30644e72e131a029b85045b68181585d2833e84879b9709143e1f593f00000017e6fab49b869ae62001deac878b2667bd31bf3e28e3a2d764aa49b8d9bbdd310830991507f30644e72e131a029b85045b68181585d2833e84879b9709143e1f593f000000180826103a08601510983096103a08401527f30644e72e131a029b85045b68181585d2833e84879b9709143e1f593f00000017e6fab49b869ae62001deac878b2667bd31bf3e28e3a2d764aa49b8d9bbdd310830991507f30644e72e131a029b85045b68181585d2833e84879b9709143e1f593f000000180826103c08601510983096103c08401527f30644e72e131a029b85045b68181585d2833e84879b9709143e1f593f00000017e6fab49b869ae62001deac878b2667bd31bf3e28e3a2d764aa49b8d9bbdd310830991507f30644e72e131a029b85045b68181585d2833e84879b9709143e1f593f000000180826103e08601510983096103e08401527f30644e72e131a029b85045b68181585d2833e84879b9709143e1f593f00000017e6fab49b869ae62001deac878b2667bd31bf3e28e3a2d764aa49b8d9bbdd310830991507f30644e72e131a029b85045b68181585d2833e84879b9709143e1f593f000000180826104008601510983096104008401527f30644e72e131a029b85045b68181585d2833e84879b9709143e1f593f00000017e6fab49b869ae62001deac878b2667bd31bf3e28e3a2d764aa49b8d9bbdd310830991507f30644e72e131a029b85045b68181585d2833e84879b9709143e1f593f000000180826104208601510983096104208401527f30644e72e131a029b85045b68181585d2833e84879b9709143e1f593f00000017e6fab49b869ae62001deac878b2667bd31bf3e28e3a2d764aa49b8d9bbdd310830991507f30644e72e131a029b85045b68181585d2833e84879b9709143e1f593f000000180826104408601510983096104408401527f30644e72e131a029b85045b68181585d2833e84879b9709143e1f593f00000017e6fab49b869ae62001deac878b2667bd31bf3e28e3a2d764aa49b8d9bbdd310830991507f30644e72e131a029b85045b68181585d2833e84879b9709143e1f593f000000180826104608601510983096104608401527f30644e72e131a029b85045b68181585d2833e84879b9709143e1f593f00000017e6fab49b869ae62001deac878b2667bd31bf3e28e3a2d764aa49b8d9bbdd310830991507f30644e72e131a029b85045b68181585d2833e84879b9709143e1f593f000000180826104808601510983096104808401527f30644e72e131a029b85045b68181585d2833e84879b9709143e1f593f00000017e6fab49b869ae62001deac878b2667bd31bf3e28e3a2d764aa49b8d9bbdd310830991507f30644e72e131a029b85045b68181585d2833e84879b9709143e1f593f000000180826104a08601510983096104a08401527f30644e72e131a029b85045b68181585d2833e84879b9709143e1f593f00000017e6fab49b869ae62001deac878b2667bd31bf3e28e3a2d764aa49b8d9bbdd310830991507f30644e72e131a029b85045b68181585d2833e84879b9709143e1f593f000000180826104c08601510983096104c08401527f30644e72e131a029b85045b68181585d2833e84879b9709143e1f593f00000017e6fab49b869ae62001deac878b2667bd31bf3e28e3a2d764aa49b8d9bbdd310830991507f30644e72e131a029b85045b68181585d2833e84879b9709143e1f593f000000180826104e08601510983096104e08401527f30644e72e131a029b85045b68181585d2833e84879b9709143e1f593f00000017e6fab49b869ae62001deac878b2667bd31bf3e28e3a2d764aa49b8d9bbdd310830991507f30644e72e131a029b85045b68181585d2833e84879b9709143e1f593f000000180826105008601510983096105008401527f30644e72e131a029b85045b68181585d2833e84879b9709143e1f593f00000017e6fab49b869ae62001deac878b2667bd31bf3e28e3a2d764aa49b8d9bbdd310830991507f30644e72e131a029b85045b68181585d2833e84879b9709143e1f593f000000180826105208601510983096105208401527f30644e72e131a029b85045b68181585d2833e84879b9709143e1f593f00000017e6fab49b869ae62001deac878b2667bd31bf3e28e3a2d764aa49b8d9bbdd310830991507f30644e72e131a029b85045b68181585d2833e84879b9709143e1f593f000000180826105408601510983096105408401527f30644e72e131a029b85045b68181585d2833e84879b9709143e1f593f00000017e6fab49b869ae62001deac878b2667bd31bf3e28e3a2d764aa49b8d9bbdd310830991507f30644e72e131a029b85045b68181585d2833e84879b9709143e1f593f000000180826105608601510983096105608401527f30644e72e131a029b85045b68181585d2833e84879b9709143e1f593f00000017e6fab49b869ae62001deac878b2667bd31bf3e28e3a2d764aa49b8d9bbdd310830991507f30644e72e131a029b85045b68181585d2833e84879b9709143e1f593f000000180826105808601510983096105808401527f30644e72e131a029b85045b68181585d2833e84879b9709143e1f593f00000017e6fab49b869ae62001deac878b2667bd31bf3e28e3a2d764aa49b8d9bbdd310830991507f30644e72e131a029b85045b68181585d2833e84879b9709143e1f593f000000180826105a08601510983096105a08401527f30644e72e131a029b85045b68181585d2833e84879b9709143e1f593f00000017e6fab49b869ae62001deac878b2667bd31bf3e28e3a2d764aa49b8d9bbdd310830991507f30644e72e131a029b85045b68181585d2833e84879b9709143e1f593f000000180826105c08601510983096105c08401527f30644e72e131a029b85045b68181585d2833e84879b9709143e1f593f00000017e6fab49b869ae62001deac878b2667bd31bf3e28e3a2d764aa49b8d9bbdd310830991507f30644e72e131a029b85045b68181585d2833e84879b9709143e1f593f000000180826105e08601510983096105e08401527f30644e72e131a029b85045b68181585d2833e84879b9709143e1f593f00000017e6fab49b869ae62001deac878b2667bd31bf3e28e3a2d764aa49b8d9bbdd310830991507f30644e72e131a029b85045b68181585d2833e84879b9709143e1f593f000000180826106008601510983096106008401527f30644e72e131a029b85045b68181585d2833e84879b9709143e1f593f00000017e6fab49b869ae62001deac878b2667bd31bf3e28e3a2d764aa49b8d9bbdd310830991507f30644e72e131a029b85045b68181585d2833e84879b9709143e1f593f000000180826106208601510983096106208401527f30644e72e131a029b85045b68181585d2833e84879b9709143e1f593f00000017e6fab49b869ae62001deac878b2667bd31bf3e28e3a2d764aa49b8d9bbdd310830991507f30644e72e131a029b85045b68181585d2833e84879b9709143e1f593f000000180826106408601510983096106408401527f30644e72e131a029b85045b68181585d2833e84879b9709143e1f593f00000017e6fab49b869ae62001deac878b2667bd31bf3e28e3a2d764aa49b8d9bbdd310830991507f30644e72e131a029b85045b68181585d2833e84879b9709143e1f593f000000180826106608601510983096106608401527f30644e72e131a029b85045b68181585d2833e84879b9709143e1f593f00000017e6fab49b869ae62001deac878b2667bd31bf3e28e3a2d764aa49b8d9bbdd310830991507f30644e72e131a029b85045b68181585d2833e84879b9709143e1f593f000000180826106808601510983096106808401527f30644e72e131a029b85045b68181585d2833e84879b9709143e1f593f00000017e6fab49b869ae62001deac878b2667bd31bf3e28e3a2d764aa49b8d9bbdd310830991507f30644e72e131a029b85045b68181585d2833e84879b9709143e1f593f000000180826106a08601510983096106a08401527f30644e72e131a029b85045b68181585d2833e84879b9709143e1f593f00000017e6fab49b869ae62001deac878b2667bd31bf3e28e3a2d764aa49b8d9bbdd310830991507f30644e72e131a029b85045b68181585d2833e84879b9709143e1f593f000000180826106c08601510983096106c08401527f30644e72e131a029b85045b68181585d2833e84879b9709143e1f593f00000017e6fab49b869ae62001deac878b2667bd31bf3e28e3a2d764aa49b8d9bbdd310830991507f30644e72e131a029b85045b68181585d2833e84879b9709143e1f593f000000180826106e08601510983096106e08401527f30644e72e131a029b85045b68181585d2833e84879b9709143e1f593f00000017e6fab49b869ae62001deac878b2667bd31bf3e28e3a2d764aa49b8d9bbdd310830991507f30644e72e131a029b85045b68181585d2833e84879b9709143e1f593f000000180826107008601510983096107008401527f30644e72e131a029b85045b68181585d2833e84879b9709143e1f593f00000017e6fab49b869ae62001deac878b2667bd31bf3e28e3a2d764aa49b8d9bbdd310830991507f30644e72e131a029b85045b68181585d2833e84879b9709143e1f593f000000180826107208601510983096107208401527f30644e72e131a029b85045b68181585d2833e84879b9709143e1f593f00000017e6fab49b869ae62001deac878b2667bd31bf3e28e3a2d764aa49b8d9bbdd310830991507f30644e72e131a029b85045b68181585d2833e84879b9709143e1f593f000000180826107408601510983096107408401527f30644e72e131a029b85045b68181585d2833e84879b9709143e1f593f00000017e6fab49b869ae62001deac878b2667bd31bf3e28e3a2d764aa49b8d9bbdd310830991507f30644e72e131a029b85045b68181585d2833e84879b9709143e1f593f000000180826107608601510983096107608401527f30644e72e131a029b85045b68181585d2833e84879b9709143e1f593f00000017e6fab49b869ae62001deac878b2667bd31bf3e28e3a2d764aa49b8d9bbdd310830991507f30644e72e131a029b85045b68181585d2833e84879b9709143e1f593f000000180826107808601510983096107808401527f30644e72e131a029b85045b68181585d2833e84879b9709143e1f593f00000017e6fab49b869ae62001deac878b2667bd31bf3e28e3a2d764aa49b8d9bbdd310830991507f30644e72e131a029b85045b68181585d2833e84879b9709143e1f593f000000180826107a08601510983096107a08401527f30644e72e131a029b85045b68181585d2833e84879b9709143e1f593f00000017e6fab49b869ae62001deac878b2667bd31bf3e28e3a2d764aa49b8d9bbdd310830991507f30644e72e131a029b85045b68181585d2833e84879b9709143e1f593f000000180826107c08601510983096107c08401527f30644e72e131a029b85045b68181585d2833e84879b9709143e1f593f00000017e6fab49b869ae62001deac878b2667bd31bf3e28e3a2d764aa49b8d9bbdd310830991507f30644e72e131a029b85045b68181585d2833e84879b9709143e1f593f000000180826107e08601510983096107e08401527f30644e72e131a029b85045b68181585d2833e84879b9709143e1f593f00000017e6fab49b869ae62001deac878b2667bd31bf3e28e3a2d764aa49b8d9bbdd310830991507f30644e72e131a029b85045b68181585d2833e84879b9709143e1f593f000000180826108008601510983096108008401527f30644e72e131a029b85045b68181585d2833e84879b9709143e1f593f00000017e6fab49b869ae62001deac878b2667bd31bf3e28e3a2d764aa49b8d9bbdd310830991507f30644e72e131a029b85045b68181585d2833e84879b9709143e1f593f000000180826108208601510983096108208401527f30644e72e131a029b85045b68181585d2833e84879b9709143e1f593f00000017e6fab49b869ae62001deac878b2667bd31bf3e28e3a2d764aa49b8d9bbdd310830991507f30644e72e131a029b85045b68181585d2833e84879b9709143e1f593f000000180826108408601510983096108408401527f30644e72e131a029b85045b68181585d2833e84879b9709143e1f593f00000017e6fab49b869ae62001deac878b2667bd31bf3e28e3a2d764aa49b8d9bbdd310830991507f30644e72e131a029b85045b68181585d2833e84879b9709143e1f593f000000180826108608601510983096108608401527f30644e72e131a029b85045b68181585d2833e84879b9709143e1f593f00000017e6fab49b869ae62001deac878b2667bd31bf3e28e3a2d764aa49b8d9bbdd310830991507f30644e72e131a029b85045b68181585d2833e84879b9709143e1f593f000000180826108808601510983096108808401527f30644e72e131a029b85045b68181585d2833e84879b9709143e1f593f00000017e6fab49b869ae62001deac878b2667bd31bf3e28e3a2d764aa49b8d9bbdd310830991507f30644e72e131a029b85045b68181585d2833e84879b9709143e1f593f000000180826108a08601510983096108a08401527f30644e72e131a029b85045b68181585d2833e84879b9709143e1f593f00000017e6fab49b869ae62001deac878b2667bd31bf3e28e3a2d764aa49b8d9bbdd310830991507f30644e72e131a029b85045b68181585d2833e84879b9709143e1f593f000000180826108c08601510983096108c08401527f30644e72e131a029b85045b68181585d2833e84879b9709143e1f593f00000017e6fab49b869ae62001deac878b2667bd31bf3e28e3a2d764aa49b8d9bbdd310830991507f30644e72e131a029b85045b68181585d2833e84879b9709143e1f593f000000180826108e08601510983096108e08401527f30644e72e131a029b85045b68181585d2833e84879b9709143e1f593f00000017e6fab49b869ae62001deac878b2667bd31bf3e28e3a2d764aa49b8d9bbdd310830991507f30644e72e131a029b85045b68181585d2833e84879b9709143e1f593f000000180826109008601510983096109008401527f30644e72e131a029b85045b68181585d2833e84879b9709143e1f593f00000017e6fab49b869ae62001deac878b2667bd31bf3e28e3a2d764aa49b8d9bbdd310830991507f30644e72e131a029b85045b68181585d2833e84879b9709143e1f593f000000180826109208601510983096109208401527f30644e72e131a029b85045b68181585d2833e84879b9709143e1f593f00000017e6fab49b869ae62001deac878b2667bd31bf3e28e3a2d764aa49b8d9bbdd310830991507f30644e72e131a029b85045b68181585d2833e84879b9709143e1f593f000000180826109408601510983096109408401527f30644e72e131a029b85045b68181585d2833e84879b9709143e1f593f00000017e6fab49b869ae62001deac878b2667bd31bf3e28e3a2d764aa49b8d9bbdd310830991507f30644e72e131a029b85045b68181585d2833e84879b9709143e1f593f000000180826109608601510983096109608401527f30644e72e131a029b85045b68181585d2833e84879b9709143e1f593f00000017e6fab49b869ae62001deac878b2667bd31bf3e28e3a2d764aa49b8d9bbdd310830991507f30644e72e131a029b85045b68181585d2833e84879b9709143e1f593f000000180826109808601510983096109808401527f30644e72e131a029b85045b68181585d2833e84879b9709143e1f593f00000017e6fab49b869ae62001deac878b2667bd31bf3e28e3a2d764aa49b8d9bbdd310830991507f30644e72e131a029b85045b68181585d2833e84879b9709143e1f593f000000180826109a08601510983096109a08401527f30644e72e131a029b85045b68181585d2833e84879b9709143e1f593f00000017e6fab49b869ae62001deac878b2667bd31bf3e28e3a2d764aa49b8d9bbdd310830991507f30644e72e131a029b85045b68181585d2833e84879b9709143e1f593f000000180826109c08601510983096109c08401527f30644e72e131a029b85045b68181585d2833e84879b9709143e1f593f00000017e6fab49b869ae62001deac878b2667bd31bf3e28e3a2d764aa49b8d9bbdd310830991507f30644e72e131a029b85045b68181585d2833e84879b9709143e1f593f000000180826109e08601510983096109e08401527f30644e72e131a029b85045b68181585d2833e84879b9709143e1f593f00000017e6fab49b869ae62001deac878b2667bd31bf3e28e3a2d764aa49b8d9bbdd310830991507f30644e72e131a029b85045b68181585d2833e84879b9709143e1f593f00000018082610a00860151098309610a008401527f30644e72e131a029b85045b68181585d2833e84879b9709143e1f593f00000017e6fab49b869ae62001deac878b2667bd31bf3e28e3a2d764aa49b8d9bbdd310830991507f30644e72e131a029b85045b68181585d2833e84879b9709143e1f593f00000018082610a20860151098309610a208401527f30644e72e131a029b85045b68181585d2833e84879b9709143e1f593f00000017e6fab49b869ae62001deac878b2667bd31bf3e28e3a2d764aa49b8d9bbdd310830991507f30644e72e131a029b85045b68181585d2833e84879b9709143e1f593f00000018082610a40860151098309610a408401527f30644e72e131a029b85045b68181585d2833e84879b9709143e1f593f00000017e6fab49b869ae62001deac878b2667bd31bf3e28e3a2d764aa49b8d9bbdd310830991507f30644e72e131a029b85045b68181585d2833e84879b9709143e1f593f00000018082610a60860151098309610a608401527f30644e72e131a029b85045b68181585d2833e84879b9709143e1f593f00000017e6fab49b869ae62001deac878b2667bd31bf3e28e3a2d764aa49b8d9bbdd310830991507f30644e72e131a029b85045b68181585d2833e84879b9709143e1f593f00000018082610a80860151098309610a808401527f30644e72e131a029b85045b68181585d2833e84879b9709143e1f593f00000017e6fab49b869ae62001deac878b2667bd31bf3e28e3a2d764aa49b8d9bbdd310830991507f30644e72e131a029b85045b68181585d2833e84879b9709143e1f593f00000018082610aa0860151098309610aa08401527f30644e72e131a029b85045b68181585d2833e84879b9709143e1f593f00000017e6fab49b869ae62001deac878b2667bd31bf3e28e3a2d764aa49b8d9bbdd310830991507f30644e72e131a029b85045b68181585d2833e84879b9709143e1f593f00000018082610ac0860151098309610ac08401527f30644e72e131a029b85045b68181585d2833e84879b9709143e1f593f00000017e6fab49b869ae62001deac878b2667bd31bf3e28e3a2d764aa49b8d9bbdd310830991507f30644e72e131a029b85045b68181585d2833e84879b9709143e1f593f00000018082610ae0860151098309610ae08401527f30644e72e131a029b85045b68181585d2833e84879b9709143e1f593f00000017e6fab49b869ae62001deac878b2667bd31bf3e28e3a2d764aa49b8d9bbdd310830991507f30644e72e131a029b85045b68181585d2833e84879b9709143e1f593f00000018082610b00860151098309610b008401527f30644e72e131a029b85045b68181585d2833e84879b9709143e1f593f00000017e6fab49b869ae62001deac878b2667bd31bf3e28e3a2d764aa49b8d9bbdd310830991507f30644e72e131a029b85045b68181585d2833e84879b9709143e1f593f00000018082610b20860151098309610b208401527f30644e72e131a029b85045b68181585d2833e84879b9709143e1f593f00000017e6fab49b869ae62001deac878b2667bd31bf3e28e3a2d764aa49b8d9bbdd310830991507f30644e72e131a029b85045b68181585d2833e84879b9709143e1f593f00000018082610b40860151098309610b408401527f30644e72e131a029b85045b68181585d2833e84879b9709143e1f593f00000017e6fab49b869ae62001deac878b2667bd31bf3e28e3a2d764aa49b8d9bbdd310830991507f30644e72e131a029b85045b68181585d2833e84879b9709143e1f593f00000018082610b60860151098309610b608401527f30644e72e131a029b85045b68181585d2833e84879b9709143e1f593f00000017e6fab49b869ae62001deac878b2667bd31bf3e28e3a2d764aa49b8d9bbdd310830991507f30644e72e131a029b85045b68181585d2833e84879b9709143e1f593f00000018082610b80860151098309610b808401527f30644e72e131a029b85045b68181585d2833e84879b9709143e1f593f00000017e6fab49b869ae62001deac878b2667bd31bf3e28e3a2d764aa49b8d9bbdd310830991507f30644e72e131a029b85045b68181585d2833e84879b9709143e1f593f00000018082610ba0860151098309610ba08401527f30644e72e131a029b85045b68181585d2833e84879b9709143e1f593f00000017e6fab49b869ae62001deac878b2667bd31bf3e28e3a2d764aa49b8d9bbdd310830991507f30644e72e131a029b85045b68181585d2833e84879b9709143e1f593f00000018082610bc0860151098309610bc08401527f30644e72e131a029b85045b68181585d2833e84879b9709143e1f593f00000017e6fab49b869ae62001deac878b2667bd31bf3e28e3a2d764aa49b8d9bbdd310830991507f30644e72e131a029b85045b68181585d2833e84879b9709143e1f593f00000018082610be0860151098309610be08401527f30644e72e131a029b85045b68181585d2833e84879b9709143e1f593f00000017e6fab49b869ae62001deac878b2667bd31bf3e28e3a2d764aa49b8d9bbdd310830991507f30644e72e131a029b85045b68181585d2833e84879b9709143e1f593f00000018082610c00860151098309610c008401527f30644e72e131a029b85045b68181585d2833e84879b9709143e1f593f00000017e6fab49b869ae62001deac878b2667bd31bf3e28e3a2d764aa49b8d9bbdd310830991507f30644e72e131a029b85045b68181585d2833e84879b9709143e1f593f00000018082610c20860151098309610c208401527f30644e72e131a029b85045b68181585d2833e84879b9709143e1f593f00000017e6fab49b869ae62001deac878b2667bd31bf3e28e3a2d764aa49b8d9bbdd310830991507f30644e72e131a029b85045b68181585d2833e84879b9709143e1f593f00000018082610c40860151098309610c408401527f30644e72e131a029b85045b68181585d2833e84879b9709143e1f593f00000017e6fab49b869ae62001deac878b2667bd31bf3e28e3a2d764aa49b8d9bbdd310830991507f30644e72e131a029b85045b68181585d2833e84879b9709143e1f593f00000018082610c60860151098309610c608401527f30644e72e131a029b85045b68181585d2833e84879b9709143e1f593f00000017e6fab49b869ae62001deac878b2667bd31bf3e28e3a2d764aa49b8d9bbdd310830991507f30644e72e131a029b85045b68181585d2833e84879b9709143e1f593f00000018082610c80860151098309610c808401527f30644e72e131a029b85045b68181585d2833e84879b9709143e1f593f00000017e6fab49b869ae62001deac878b2667bd31bf3e28e3a2d764aa49b8d9bbdd310830991507f30644e72e131a029b85045b68181585d2833e84879b9709143e1f593f00000018082610ca0860151098309610ca08401527f30644e72e131a029b85045b68181585d2833e84879b9709143e1f593f00000017e6fab49b869ae62001deac878b2667bd31bf3e28e3a2d764aa49b8d9bbdd310830991507f30644e72e131a029b85045b68181585d2833e84879b9709143e1f593f00000018082610cc0860151098309610cc08401527f30644e72e131a029b85045b68181585d2833e84879b9709143e1f593f00000017e6fab49b869ae62001deac878b2667bd31bf3e28e3a2d764aa49b8d9bbdd310830991507f30644e72e131a029b85045b68181585d2833e84879b9709143e1f593f00000018082610ce0860151098309610ce08401527f30644e72e131a029b85045b68181585d2833e84879b9709143e1f593f00000017e6fab49b869ae62001deac878b2667bd31bf3e28e3a2d764aa49b8d9bbdd310830991507f30644e72e131a029b85045b68181585d2833e84879b9709143e1f593f00000018082610d00860151098309610d008401527f30644e72e131a029b85045b68181585d2833e84879b9709143e1f593f00000017e6fab49b869ae62001deac878b2667bd31bf3e28e3a2d764aa49b8d9bbdd310830991507f30644e72e131a029b85045b68181585d2833e84879b9709143e1f593f00000018082610d20860151098309610d208401527f30644e72e131a029b85045b68181585d2833e84879b9709143e1f593f00000017e6fab49b869ae62001deac878b2667bd31bf3e28e3a2d764aa49b8d9bbdd310830991507f30644e72e131a029b85045b68181585d2833e84879b9709143e1f593f00000018082610d40860151098309610d408401527f30644e72e131a029b85045b68181585d2833e84879b9709143e1f593f00000017e6fab49b869ae62001deac878b2667bd31bf3e28e3a2d764aa49b8d9bbdd310830991507f30644e72e131a029b85045b68181585d2833e84879b9709143e1f593f00000018082610d60860151098309610d608401527f30644e72e131a029b85045b68181585d2833e84879b9709143e1f593f00000017e6fab49b869ae62001deac878b2667bd31bf3e28e3a2d764aa49b8d9bbdd310830991507f30644e72e131a029b85045b68181585d2833e84879b9709143e1f593f00000018082610d80860151098309610d808401527f30644e72e131a029b85045b68181585d2833e84879b9709143e1f593f00000017e6fab49b869ae62001deac878b2667bd31bf3e28e3a2d764aa49b8d9bbdd310830991507f30644e72e131a029b85045b68181585d2833e84879b9709143e1f593f00000018082610da0860151098309610da08401527f30644e72e131a029b85045b68181585d2833e84879b9709143e1f593f00000017e6fab49b869ae62001deac878b2667bd31bf3e28e3a2d764aa49b8d9bbdd310830991507f30644e72e131a029b85045b68181585d2833e84879b9709143e1f593f00000018082610dc0860151098309610dc0840152505050565b60007f30644e72e131a029b85045b68181585d2833e84879b9709143e1f593f0000001807f30644e72e131a029b85045b68181585d2833e84879b9709143e1f593f00000016000860135610320860151098303010690507f30644e72e131a029b85045b68181585d2833e84879b9709143e1f593f0000001807f30644e72e131a029b85045b68181585d2833e84879b9709143e1f593f00000016020860135610340860151098303010690507f30644e72e131a029b85045b68181585d2833e84879b9709143e1f593f0000001807f30644e72e131a029b85045b68181585d2833e84879b9709143e1f593f00000016040860135610360860151098303010690507f30644e72e131a029b85045b68181585d2833e84879b9709143e1f593f0000001807f30644e72e131a029b85045b68181585d2833e84879b9709143e1f593f00000016060860135610380860151098303010690507f30644e72e131a029b85045b68181585d2833e84879b9709143e1f593f0000001807f30644e72e131a029b85045b68181585d2833e84879b9709143e1f593f000000160808601356103a0860151098303010690507f30644e72e131a029b85045b68181585d2833e84879b9709143e1f593f0000001807f30644e72e131a029b85045b68181585d2833e84879b9709143e1f593f000000160a08601356103c0860151098303010690507f30644e72e131a029b85045b68181585d2833e84879b9709143e1f593f0000001807f30644e72e131a029b85045b68181585d2833e84879b9709143e1f593f000000160c08601356103e0860151098303010690507f30644e72e131a029b85045b68181585d2833e84879b9709143e1f593f0000001807f30644e72e131a029b85045b68181585d2833e84879b9709143e1f593f000000160e0860135610400860151098303010690507f30644e72e131a029b85045b68181585d2833e84879b9709143e1f593f0000001807f30644e72e131a029b85045b68181585d2833e84879b9709143e1f593f0000001610100860135610420860151098303010690507f30644e72e131a029b85045b68181585d2833e84879b9709143e1f593f0000001807f30644e72e131a029b85045b68181585d2833e84879b9709143e1f593f0000001610120860135610440860151098303010690507f30644e72e131a029b85045b68181585d2833e84879b9709143e1f593f0000001807f30644e72e131a029b85045b68181585d2833e84879b9709143e1f593f0000001610140860135610460860151098303010690507f30644e72e131a029b85045b68181585d2833e84879b9709143e1f593f0000001807f30644e72e131a029b85045b68181585d2833e84879b9709143e1f593f0000001610160860135610480860151098303010690507f30644e72e131a029b85045b68181585d2833e84879b9709143e1f593f0000001807f30644e72e131a029b85045b68181585d2833e84879b9709143e1f593f00000016101808601356104a0860151098303010690507f30644e72e131a029b85045b68181585d2833e84879b9709143e1f593f0000001807f30644e72e131a029b85045b68181585d2833e84879b9709143e1f593f00000016101a08601356104c0860151098303010690507f30644e72e131a029b85045b68181585d2833e84879b9709143e1f593f0000001807f30644e72e131a029b85045b68181585d2833e84879b9709143e1f593f00000016101c08601356104e0860151098303010690507f30644e72e131a029b85045b68181585d2833e84879b9709143e1f593f0000001807f30644e72e131a029b85045b68181585d2833e84879b9709143e1f593f00000016101e0860135610500860151098303010690507f30644e72e131a029b85045b68181585d2833e84879b9709143e1f593f0000001807f30644e72e131a029b85045b68181585d2833e84879b9709143e1f593f0000001610200860135610520860151098303010690507f30644e72e131a029b85045b68181585d2833e84879b9709143e1f593f0000001807f30644e72e131a029b85045b68181585d2833e84879b9709143e1f593f0000001610220860135610540860151098303010690507f30644e72e131a029b85045b68181585d2833e84879b9709143e1f593f0000001807f30644e72e131a029b85045b68181585d2833e84879b9709143e1f593f0000001610240860135610560860151098303010690507f30644e72e131a029b85045b68181585d2833e84879b9709143e1f593f0000001807f30644e72e131a029b85045b68181585d2833e84879b9709143e1f593f0000001610260860135610580860151098303010690507f30644e72e131a029b85045b68181585d2833e84879b9709143e1f593f0000001807f30644e72e131a029b85045b68181585d2833e84879b9709143e1f593f00000016102808601356105a0860151098303010690507f30644e72e131a029b85045b68181585d2833e84879b9709143e1f593f0000001807f30644e72e131a029b85045b68181585d2833e84879b9709143e1f593f00000016102a08601356105c0860151098303010690507f30644e72e131a029b85045b68181585d2833e84879b9709143e1f593f0000001807f30644e72e131a029b85045b68181585d2833e84879b9709143e1f593f00000016102c08601356105e0860151098303010690507f30644e72e131a029b85045b68181585d2833e84879b9709143e1f593f0000001807f30644e72e131a029b85045b68181585d2833e84879b9709143e1f593f00000016102e0860135610600860151098303010690507f30644e72e131a029b85045b68181585d2833e84879b9709143e1f593f0000001807f30644e72e131a029b85045b68181585d2833e84879b9709143e1f593f0000001610300860135610620860151098303010690507f30644e72e131a029b85045b68181585d2833e84879b9709143e1f593f0000001807f30644e72e131a029b85045b68181585d2833e84879b9709143e1f593f0000001610320860135610640860151098303010690507f30644e72e131a029b85045b68181585d2833e84879b9709143e1f593f0000001807f30644e72e131a029b85045b68181585d2833e84879b9709143e1f593f0000001610340860135610660860151098303010690507f30644e72e131a029b85045b68181585d2833e84879b9709143e1f593f0000001807f30644e72e131a029b85045b68181585d2833e84879b9709143e1f593f0000001610360860135610680860151098303010690507f30644e72e131a029b85045b68181585d2833e84879b9709143e1f593f0000001807f30644e72e131a029b85045b68181585d2833e84879b9709143e1f593f00000016103808601356106a0860151098303010690507f30644e72e131a029b85045b68181585d2833e84879b9709143e1f593f0000001807f30644e72e131a029b85045b68181585d2833e84879b9709143e1f593f00000016103a08601356106c0860151098303010690507f30644e72e131a029b85045b68181585d2833e84879b9709143e1f593f0000001807f30644e72e131a029b85045b68181585d2833e84879b9709143e1f593f00000016103c08601356106e0860151098303010690507f30644e72e131a029b85045b68181585d2833e84879b9709143e1f593f0000001807f30644e72e131a029b85045b68181585d2833e84879b9709143e1f593f00000016103e0860135610700860151098303010690507f30644e72e131a029b85045b68181585d2833e84879b9709143e1f593f0000001807f30644e72e131a029b85045b68181585d2833e84879b9709143e1f593f0000001610400860135610720860151098303010690507f30644e72e131a029b85045b68181585d2833e84879b9709143e1f593f0000001807f30644e72e131a029b85045b68181585d2833e84879b9709143e1f593f0000001610420860135610740860151098303010690507f30644e72e131a029b85045b68181585d2833e84879b9709143e1f593f0000001807f30644e72e131a029b85045b68181585d2833e84879b9709143e1f593f0000001610440860135610760860151098303010690507f30644e72e131a029b85045b68181585d2833e84879b9709143e1f593f0000001807f30644e72e131a029b85045b68181585d2833e84879b9709143e1f593f0000001610460860135610780860151098303010690507f30644e72e131a029b85045b68181585d2833e84879b9709143e1f593f0000001807f30644e72e131a029b85045b68181585d2833e84879b9709143e1f593f00000016104808601356107a0860151098303010690507f30644e72e131a029b85045b68181585d2833e84879b9709143e1f593f0000001807f30644e72e131a029b85045b68181585d2833e84879b9709143e1f593f00000016104a08601356107c0860151098303010690507f30644e72e131a029b85045b68181585d2833e84879b9709143e1f593f0000001807f30644e72e131a029b85045b68181585d2833e84879b9709143e1f593f00000016104c08601356107e0860151098303010690507f30644e72e131a029b85045b68181585d2833e84879b9709143e1f593f0000001807f30644e72e131a029b85045b68181585d2833e84879b9709143e1f593f00000016104e0860135610800860151098303010690507f30644e72e131a029b85045b68181585d2833e84879b9709143e1f593f0000001807f30644e72e131a029b85045b68181585d2833e84879b9709143e1f593f0000001610500860135610820860151098303010690507f30644e72e131a029b85045b68181585d2833e84879b9709143e1f593f0000001807f30644e72e131a029b85045b68181585d2833e84879b9709143e1f593f0000001610520860135610840860151098303010690507f30644e72e131a029b85045b68181585d2833e84879b9709143e1f593f0000001807f30644e72e131a029b85045b68181585d2833e84879b9709143e1f593f0000001610540860135610860860151098303010690507f30644e72e131a029b85045b68181585d2833e84879b9709143e1f593f0000001807f30644e72e131a029b85045b68181585d2833e84879b9709143e1f593f0000001610560860135610880860151098303010690507f30644e72e131a029b85045b68181585d2833e84879b9709143e1f593f0000001807f30644e72e131a029b85045b68181585d2833e84879b9709143e1f593f00000016105808601356108a0860151098303010690507f30644e72e131a029b85045b68181585d2833e84879b9709143e1f593f0000001807f30644e72e131a029b85045b68181585d2833e84879b9709143e1f593f00000016105a08601356108c0860151098303010690507f30644e72e131a029b85045b68181585d2833e84879b9709143e1f593f0000001807f30644e72e131a029b85045b68181585d2833e84879b9709143e1f593f00000016105c08601356108e0860151098303010690507f30644e72e131a029b85045b68181585d2833e84879b9709143e1f593f0000001807f30644e72e131a029b85045b68181585d2833e84879b9709143e1f593f00000016105e0860135610900860151098303010690507f30644e72e131a029b85045b68181585d2833e84879b9709143e1f593f0000001807f30644e72e131a029b85045b68181585d2833e84879b9709143e1f593f0000001610600860135610920860151098303010690507f30644e72e131a029b85045b68181585d2833e84879b9709143e1f593f0000001807f30644e72e131a029b85045b68181585d2833e84879b9709143e1f593f0000001610620860135610940860151098303010690507f30644e72e131a029b85045b68181585d2833e84879b9709143e1f593f0000001807f30644e72e131a029b85045b68181585d2833e84879b9709143e1f593f0000001610640860135610960860151098303010690507f30644e72e131a029b85045b68181585d2833e84879b9709143e1f593f0000001807f30644e72e131a029b85045b68181585d2833e84879b9709143e1f593f0000001610660860135610980860151098303010690507f30644e72e131a029b85045b68181585d2833e84879b9709143e1f593f0000001807f30644e72e131a029b85045b68181585d2833e84879b9709143e1f593f00000016106808601356109a0860151098303010690507f30644e72e131a029b85045b68181585d2833e84879b9709143e1f593f0000001807f30644e72e131a029b85045b68181585d2833e84879b9709143e1f593f00000016106a08601356109c0860151098303010690507f30644e72e131a029b85045b68181585d2833e84879b9709143e1f593f0000001807f30644e72e131a029b85045b68181585d2833e84879b9709143e1f593f00000016106c08601356109e0860151098303010690507f30644e72e131a029b85045b68181585d2833e84879b9709143e1f593f0000001807f30644e72e131a029b85045b68181585d2833e84879b9709143e1f593f00000016106e0860135610a00860151098303010690507f30644e72e131a029b85045b68181585d2833e84879b9709143e1f593f0000001807f30644e72e131a029b85045b68181585d2833e84879b9709143e1f593f0000001610700860135610a20860151098303010690507f30644e72e131a029b85045b68181585d2833e84879b9709143e1f593f0000001807f30644e72e131a029b85045b68181585d2833e84879b9709143e1f593f0000001610720860135610a40860151098303010690507f30644e72e131a029b85045b68181585d2833e84879b9709143e1f593f0000001807f30644e72e131a029b85045b68181585d2833e84879b9709143e1f593f0000001610740860135610a60860151098303010690507f30644e72e131a029b85045b68181585d2833e84879b9709143e1f593f0000001807f30644e72e131a029b85045b68181585d2833e84879b9709143e1f593f0000001610760860135610a80860151098303010690507f30644e72e131a029b85045b68181585d2833e84879b9709143e1f593f0000001807f30644e72e131a029b85045b68181585d2833e84879b9709143e1f593f0000001610780860135610aa0860151098303010690507f30644e72e131a029b85045b68181585d2833e84879b9709143e1f593f0000001807f30644e72e131a029b85045b68181585d2833e84879b9709143e1f593f00000016107a0860135610ac0860151098303010690507f30644e72e131a029b85045b68181585d2833e84879b9709143e1f593f0000001807f30644e72e131a029b85045b68181585d2833e84879b9709143e1f593f00000016107c0860135610ae0860151098303010690507f30644e72e131a029b85045b68181585d2833e84879b9709143e1f593f0000001807f30644e72e131a029b85045b68181585d2833e84879b9709143e1f593f00000016107e0860135610b00860151098303010690507f30644e72e131a029b85045b68181585d2833e84879b9709143e1f593f0000001807f30644e72e131a029b85045b68181585d2833e84879b9709143e1f593f0000001610800860135610b20860151098303010690507f30644e72e131a029b85045b68181585d2833e84879b9709143e1f593f0000001807f30644e72e131a029b85045b68181585d2833e84879b9709143e1f593f0000001610820860135610b40860151098303010690507f30644e72e131a029b85045b68181585d2833e84879b9709143e1f593f0000001807f30644e72e131a029b85045b68181585d2833e84879b9709143e1f593f0000001610840860135610b60860151098303010690507f30644e72e131a029b85045b68181585d2833e84879b9709143e1f593f0000001807f30644e72e131a029b85045b68181585d2833e84879b9709143e1f593f0000001610860860135610b80860151098303010690507f30644e72e131a029b85045b68181585d2833e84879b9709143e1f593f0000001807f30644e72e131a029b85045b68181585d2833e84879b9709143e1f593f0000001610880860135610ba0860151098303010690507f30644e72e131a029b85045b68181585d2833e84879b9709143e1f593f0000001807f30644e72e131a029b85045b68181585d2833e84879b9709143e1f593f00000016108a0860135610bc0860151098303010690507f30644e72e131a029b85045b68181585d2833e84879b9709143e1f593f0000001807f30644e72e131a029b85045b68181585d2833e84879b9709143e1f593f00000016108c0860135610be0860151098303010690507f30644e72e131a029b85045b68181585d2833e84879b9709143e1f593f0000001807f30644e72e131a029b85045b68181585d2833e84879b9709143e1f593f00000016108e0860135610c00860151098303010690507f30644e72e131a029b85045b68181585d2833e84879b9709143e1f593f0000001807f30644e72e131a029b85045b68181585d2833e84879b9709143e1f593f0000001610900860135610c20860151098303010690507f30644e72e131a029b85045b68181585d2833e84879b9709143e1f593f0000001807f30644e72e131a029b85045b68181585d2833e84879b9709143e1f593f0000001610920860135610c40860151098303010690507f30644e72e131a029b85045b68181585d2833e84879b9709143e1f593f0000001807f30644e72e131a029b85045b68181585d2833e84879b9709143e1f593f0000001610940860135610c60860151098303010690507f30644e72e131a029b85045b68181585d2833e84879b9709143e1f593f0000001807f30644e72e131a029b85045b68181585d2833e84879b9709143e1f593f0000001610960860135610c80860151098303010690507f30644e72e131a029b85045b68181585d2833e84879b9709143e1f593f0000001807f30644e72e131a029b85045b68181585d2833e84879b9709143e1f593f0000001610980860135610ca0860151098303010690507f30644e72e131a029b85045b68181585d2833e84879b9709143e1f593f0000001807f30644e72e131a029b85045b68181585d2833e84879b9709143e1f593f00000016109a0860135610cc0860151098303010690507f30644e72e131a029b85045b68181585d2833e84879b9709143e1f593f0000001807f30644e72e131a029b85045b68181585d2833e84879b9709143e1f593f00000016109c0860135610ce0860151098303010690507f30644e72e131a029b85045b68181585d2833e84879b9709143e1f593f0000001807f30644e72e131a029b85045b68181585d2833e84879b9709143e1f593f00000016109e0860135610d00860151098303010690507f30644e72e131a029b85045b68181585d2833e84879b9709143e1f593f0000001807f30644e72e131a029b85045b68181585d2833e84879b9709143e1f593f0000001610a00860135610d20860151098303010690507f30644e72e131a029b85045b68181585d2833e84879b9709143e1f593f0000001807f30644e72e131a029b85045b68181585d2833e84879b9709143e1f593f0000001610a20860135610d40860151098303010690507f30644e72e131a029b85045b68181585d2833e84879b9709143e1f593f0000001807f30644e72e131a029b85045b68181585d2833e84879b9709143e1f593f0000001610a40860135610d60860151098303010690507f30644e72e131a029b85045b68181585d2833e84879b9709143e1f593f0000001807f30644e72e131a029b85045b68181585d2833e84879b9709143e1f593f0000001610a60860135610d80860151098303010690507f30644e72e131a029b85045b68181585d2833e84879b9709143e1f593f0000001807f30644e72e131a029b85045b68181585d2833e84879b9709143e1f593f0000001610a80860135610da0860151098303010690507f30644e72e131a029b85045b68181585d2833e84879b9709143e1f593f0000001807f30644e72e131a029b85045b68181585d2833e84879b9709143e1f593f0000001610aa0860135610dc08601510983030106905080610180830152505050565b6101808101517f30644e72e131a029b85045b68181585d2833e84879b9709143e1f593f00000016102c0830151610320840151097f30644e72e131a029b85045b68181585d2833e84879b9709143e1f593f0000001806102a43560208601510961024435087f30644e72e131a029b85045b68181585d2833e84879b9709143e1f593f00000016040850151820890507f30644e72e131a029b85045b68181585d2833e84879b9709143e1f593f0000001806102c43560208701510961026435087f30644e72e131a029b85045b68181585d2833e84879b9709143e1f593f00000016040860151820890507f30644e72e131a029b85045b68181585d2833e84879b9709143e1f593f0000001604086015161028435087f30644e72e131a029b85045b68181585d2833e84879b9709143e1f593f0000001817f30644e72e131a029b85045b68181585d2833e84879b9709143e1f593f0000001848609097f30644e72e131a029b85045b68181585d2833e84879b9709143e1f593f00000016102e435820990507f30644e72e131a029b85045b68181585d2833e84879b9709143e1f593f00000016000880151820990507f30644e72e131a029b85045b68181585d2833e84879b9709143e1f593f000000180867f30644e72e131a029b85045b68181585d2833e84879b9709143e1f593f0000001030687087f30644e72e131a029b85045b68181585d2833e84879b9709143e1f593f000000180837f30644e72e131a029b85045b68181585d2833e84879b9709143e1f593f0000001030682089050806101a08901525050505050505050565b81518152602082015160208201525050565b818152826020820152505050565b81358152602082013560208201525050565b6040518151815260208201516020820152825160408201526020830151606082015260408260808360066107d05a03fa80618954576000805260206000f35b50505050565b600060405183815284602082015285604082015260408160608360076107d05a03fa91508161898d576000805260206000f35b825160408201526020830151606082015260408360808360066107d05a03fa9150816189bd576000805260206000f35b505050505050565b600060405183815284602082015285604082015260408360608360076107d05a03fa9150816189f8576000805260206000f35b505050505050565b618a118360208401518451846189c5565b505050565b6101c0810160408201516040516101008101604052618a767f201cde5fcda021564097f53f2990aa25f5528cebd32e0fe6d2fbe3cada8ddeb67f2b14ae9658c0d95361a5ae44ce7494180c44cff70066451a93ccb8028450bcaf856188f5565b618aea7f30644e72e131a029b85045b68181585d2833e84879b9709143e1f593f00000016102643561024435097f12035d3a6e18f1be17cd52b4ac2bb9fc29dc74b99fae5440db17731e57e3b6cb7e12991e3a26c788fdc43ab8273be1b619d3b2030404b5f0c15daceb641c627e8661895a565b618b39610244357f12a55ecb471ee0a9d3df1d6fe5004ad6b39895d8403654f2d2a2a3d7a31541de7f122fd2c97716bdbd10cffd54f31b2eb2faac2429c5ad96d4cd9bdc52cbec1bd88661895a565b618b87610264357f2192aec6c39dd00474c39e3a1e8b32fbb8d55d81e497a4295336e0228f8b7a727e8b4280bd2d9de3a31a630f2b12d33091e9b46042ccf9e9da3affff27df7ba18661895a565b618bd6610284357f27e5d6fe2bc7265578bc612fc4bf19be381635eedb24eeb567b2f9e20c63fc207f216d0d8eb03043536624e0a563d7f1b29439744d5ac9bb90d800474c20ea82158661895a565b60a08401517f30644e72e131a029b85045b68181585d2833e84879b9709143e1f593f0000001837f30644e72e131a029b85045b68181585d2833e84879b9709143e1f593f0000001836102443508087f30644e72e131a029b85045b68181585d2833e84879b9709143e1f593f0000001847f30644e72e131a029b85045b68181585d2833e84879b9709143e1f593f000000180600286096102643508087f30644e72e131a029b85045b68181585d2833e84879b9709143e1f593f0000001857f30644e72e131a029b85045b68181585d2833e84879b9709143e1f593f000000180600387096102843508087f30644e72e131a029b85045b68181585d2833e84879b9709143e1f593f000000160008901517f30644e72e131a029b85045b68181585d2833e84879b9709143e1f593f0000001837f30644e72e131a029b85045b68181585d2833e84879b9709143e1f593f000000186880909097f30644e72e131a029b85045b68181585d2833e84879b9709143e1f593f00000016102c08a01516103208b015109618d6b60c460c08901618903565b618dc47f30644e72e131a029b85045b68181585d2833e84879b9709143e1f593f00000016101608c01517f30644e72e131a029b85045b68181585d2833e84879b9709143e1f593f00000018486080860c0890189618a00565b7f30644e72e131a029b85045b68181585d2833e84879b9709143e1f593f0000001887f30644e72e131a029b85045b68181585d2833e84879b9709143e1f593f0000001806102a43560208f01510961024435080894507f30644e72e131a029b85045b68181585d2833e84879b9709143e1f593f0000001887f30644e72e131a029b85045b68181585d2833e84879b9709143e1f593f0000001806102c43560208f01510961026435080893507f30644e72e131a029b85045b68181585d2833e84879b9709143e1f593f00000016102e4357f30644e72e131a029b85045b68181585d2833e84879b9709143e1f593f000000160208d015160008e015109099250618f597f30644e72e131a029b85045b68181585d2833e84879b9709143e1f593f0000001847f30644e72e131a029b85045b68181585d2833e84879b9709143e1f593f0000001878909097f2c25a64620958e7c4f1864e18d8354ed9a28b9b26b75728c41b9a6ab5c88dd0d7f2a0cd00c3209ca39a28ae8e29b13f4c7d895ee40d50ff21199ac7513d58aa15660408b016189c5565b618f6861010460808901618903565b618f8460808b0151602061014401356101443560808b0161895a565b7f30644e72e131a029b85045b68181585d2833e84879b9709143e1f593f000000160808b015160808c015109618fc881602061018401356101843560808c0161895a565b618fe46102e08c015160a08a015160808b015160808c016189c5565b7f30644e72e131a029b85045b68181585d97816a916871ca8d3c208c16d87cfd47602060408a0101517f30644e72e131a029b85045b68181585d97816a916871ca8d3c208c16d87cfd470306602060408a0101527f30644e72e131a029b85045b68181585d97816a916871ca8d3c208c16d87cfd4760a08901517f30644e72e131a029b85045b68181585d97816a916871ca8d3c208c16d87cfd47030660a0890152619090888b618915565b61909d604089018b618915565b6190aa608089018b618915565b5050505050505050505050565b61020081016190ca6101c08301826188e3565b6190e160c08301516020600401356004358461895a565b6190f860e08301516020604401356044358461895a565b6191106101008301516020608401356084358461895a565b6191616101208301517f0b18a935c1273ed5a62365040e85ed2c23d041601835bd3ba950442e03d27d2b7f0d2662ac48ae91b773f9a8c461e89038a9443ec3b724d8fbee0e317b4aa89d708461895a565b6191b26101408301517f271f08b253baf3ad73939ba88de565f2eb0ec7921d9aaa89825724ce6e15ebd57f16c69729881a9d7d081d079fb3dec1bc5922042114b168b44cf313eb84f1bab48461895a565b5050565b7f30644e72e131a029b85045b68181585d2833e84879b9709143e1f593f00000016101a08201517f30644e72e131a029b85045b68181585d2833e84879b9709143e1f593f000000103067f30644e72e131a029b85045b68181585d2833e84879b9709143e1f593f00000018060c08401516102443509820890507f30644e72e131a029b85045b68181585d2833e84879b9709143e1f593f00000018060e08401516102643509820890507f30644e72e131a029b85045b68181585d2833e84879b9709143e1f593f0000001806101008401516102843509820890507f30644e72e131a029b85045b68181585d2833e84879b9709143e1f593f0000001806101208401516102a43509820890507f30644e72e131a029b85045b68181585d2833e84879b9709143e1f593f0000001806101408401516102c43509820890507f30644e72e131a029b85045b68181585d2833e84879b9709143e1f593f0000001806101608401516102e4350982089050619336816002600161024086016189c5565b5050565b6000604051610240810160405261018081016101c0820161020083016193626101c484618903565b61936e61020483618903565b61937e6101608701518386618a00565b6193888385618915565b7f30644e72e131a029b85045b68181585d97816a916871ca8d3c208c16d87cfd4760208501517f30644e72e131a029b85045b68181585d97816a916871ca8d3c208c16d87cfd47030660208501527f26186a2d65ee4d2f9c9a5b91f86597d35f192cd120caf7e935d8443d1938e23d60408501527f30441fd1b5d3370482c42152a8899027716989a6996c2535bc9f7fee8aaef79e60608501527f1970ea81dd6992adfbc571effb03503adbbb6a857f578403c6c40e22d65b3c0260808501527f054793348f12c0cf5622c340573cb277586319de359ab9389778f689786b1e4860a085015261948060608701518460c08701618a00565b7f30644e72e131a029b85045b68181585d2833e84879b9709143e1f593f00000016060870151610160880151097f30644e72e131a029b85045b68181585d2833e84879b9709143e1f593f00000017e6fab49b869ae62001deac878b2667bd31bf3e28e3a2d764aa49b8d9bbdd310820990506194fd818484618a00565b61950a8260c08701618915565b61951b610200880160c08701618915565b7f30644e72e131a029b85045b68181585d97816a916871ca8d3c208c16d87cfd476020610240018801517f30644e72e131a029b85045b68181585d97816a916871ca8d3c208c16d87cfd470306602061024001880152619582610240880160c08701618915565b7f198e9393920d483a7260bfb731fb5d25f1aa493335a9e71297e485b7aef312c26101008601527f1800deef121f1e76426a00665e5c4479674322d4f75edadd46debd5cd992f6ed6101208601527f090689d0585ff075ec9e99ad690c3395bc4b313370b38ef355acdadcd122975b6101408601527f12c85ea5db8c6deb4aab71808dcb408fe3d1e7690c43d37b4ce6cc0166fa7daa6101608601526020856101808760086107d05a03fa855181169650505050505050919050565b604051610de08101604052619651610206565b61965b8382610250565b61966481610e08565b61966e83826169a7565b61967781618691565b61968081618a16565b619689816190b7565b619692816191b6565b61969b8161933a565b610de082036040528060005260206000f35b6000819050826020601802820111156196c557600080fd5b92915050565b6000819050826020605602820111156196e357600080fd5b92915050565b600080610dc083850312156196fd57600080fd5b600061970b858286016196ad565b92505061030061971d858286016196cb565b9150509250929050565b61973081619751565b82525050565b600060208201905061974b6000830184619727565b92915050565b6000811515905091905056fea264697066735822122052ce546c77695d2e0b315477b6cefae33c5c25e73721d504ea2a8d22df6191f464736f6c63430008040033",
  "linkReferences": {},
  "deployedLinkReferences": {}
}